{
  "contractName": "Collateral",
  "abi": [
    {
      "inputs": [],
      "payable": false,
      "stateMutability": "nonpayable",
      "type": "constructor"
    },
    {
      "anonymous": false,
      "inputs": [
        {
          "indexed": true,
          "internalType": "address",
          "name": "owner",
          "type": "address"
        },
        {
          "indexed": true,
          "internalType": "address",
          "name": "spender",
          "type": "address"
        },
        {
          "indexed": false,
          "internalType": "uint256",
          "name": "value",
          "type": "uint256"
        }
      ],
      "name": "Approval",
      "type": "event"
    },
    {
      "anonymous": false,
      "inputs": [
        {
          "indexed": true,
          "internalType": "address",
          "name": "sender",
          "type": "address"
        },
        {
          "indexed": true,
          "internalType": "address",
          "name": "minter",
          "type": "address"
        },
        {
          "indexed": false,
          "internalType": "uint256",
          "name": "mintAmount",
          "type": "uint256"
        },
        {
          "indexed": false,
          "internalType": "uint256",
          "name": "mintTokens",
          "type": "uint256"
        }
      ],
      "name": "Mint",
      "type": "event"
    },
    {
      "anonymous": false,
      "inputs": [
        {
          "indexed": false,
          "internalType": "uint256",
          "name": "newLiquidationFee",
          "type": "uint256"
        }
      ],
      "name": "NewLiquidationFee",
      "type": "event"
    },
    {
      "anonymous": false,
      "inputs": [
        {
          "indexed": false,
          "internalType": "uint256",
          "name": "newLiquidationIncentive",
          "type": "uint256"
        }
      ],
      "name": "NewLiquidationIncentive",
      "type": "event"
    },
    {
      "anonymous": false,
      "inputs": [
        {
          "indexed": false,
          "internalType": "uint256",
          "name": "newMTolerance",
          "type": "uint256"
        }
      ],
      "name": "NewMTolerance",
      "type": "event"
    },
    {
      "anonymous": false,
      "inputs": [
        {
          "indexed": false,
          "internalType": "uint256",
          "name": "newSafetyMargin",
          "type": "uint256"
        }
      ],
      "name": "NewSafetyMargin",
      "type": "event"
    },
    {
      "anonymous": false,
      "inputs": [
        {
          "indexed": true,
          "internalType": "address",
          "name": "sender",
          "type": "address"
        },
        {
          "indexed": true,
          "internalType": "address",
          "name": "redeemer",
          "type": "address"
        },
        {
          "indexed": false,
          "internalType": "uint256",
          "name": "redeemAmount",
          "type": "uint256"
        },
        {
          "indexed": false,
          "internalType": "uint256",
          "name": "redeemTokens",
          "type": "uint256"
        }
      ],
      "name": "Redeem",
      "type": "event"
    },
    {
      "anonymous": false,
      "inputs": [
        {
          "indexed": false,
          "internalType": "uint256",
          "name": "totalBalance",
          "type": "uint256"
        }
      ],
      "name": "Sync",
      "type": "event"
    },
    {
      "anonymous": false,
      "inputs": [
        {
          "indexed": true,
          "internalType": "address",
          "name": "from",
          "type": "address"
        },
        {
          "indexed": true,
          "internalType": "address",
          "name": "to",
          "type": "address"
        },
        {
          "indexed": false,
          "internalType": "uint256",
          "name": "value",
          "type": "uint256"
        }
      ],
      "name": "Transfer",
      "type": "event"
    },
    {
      "constant": true,
      "inputs": [],
      "name": "DOMAIN_SEPARATOR",
      "outputs": [
        {
          "internalType": "bytes32",
          "name": "",
          "type": "bytes32"
        }
      ],
      "payable": false,
      "stateMutability": "view",
      "type": "function"
    },
    {
      "constant": true,
      "inputs": [],
      "name": "LIQUIDATION_FEE_MAX",
      "outputs": [
        {
          "internalType": "uint256",
          "name": "",
          "type": "uint256"
        }
      ],
      "payable": false,
      "stateMutability": "view",
      "type": "function"
    },
    {
      "constant": true,
      "inputs": [],
      "name": "LIQUIDATION_INCENTIVE_MAX",
      "outputs": [
        {
          "internalType": "uint256",
          "name": "",
          "type": "uint256"
        }
      ],
      "payable": false,
      "stateMutability": "view",
      "type": "function"
    },
    {
      "constant": true,
      "inputs": [],
      "name": "LIQUIDATION_INCENTIVE_MIN",
      "outputs": [
        {
          "internalType": "uint256",
          "name": "",
          "type": "uint256"
        }
      ],
      "payable": false,
      "stateMutability": "view",
      "type": "function"
    },
    {
      "constant": true,
      "inputs": [],
      "name": "MINIMUM_LIQUIDITY",
      "outputs": [
        {
          "internalType": "uint256",
          "name": "",
          "type": "uint256"
        }
      ],
      "payable": false,
      "stateMutability": "view",
      "type": "function"
    },
    {
      "constant": true,
      "inputs": [],
      "name": "M_TOLERANCE_MAX",
      "outputs": [
        {
          "internalType": "uint256",
          "name": "",
          "type": "uint256"
        }
      ],
      "payable": false,
      "stateMutability": "view",
      "type": "function"
    },
    {
      "constant": true,
      "inputs": [],
      "name": "M_TOLERANCE_MIN",
      "outputs": [
        {
          "internalType": "uint256",
          "name": "",
          "type": "uint256"
        }
      ],
      "payable": false,
      "stateMutability": "view",
      "type": "function"
    },
    {
      "constant": true,
      "inputs": [],
      "name": "PERMIT_TYPEHASH",
      "outputs": [
        {
          "internalType": "bytes32",
          "name": "",
          "type": "bytes32"
        }
      ],
      "payable": false,
      "stateMutability": "view",
      "type": "function"
    },
    {
      "constant": true,
      "inputs": [],
      "name": "SAFETY_MARGIN_MAX",
      "outputs": [
        {
          "internalType": "uint256",
          "name": "",
          "type": "uint256"
        }
      ],
      "payable": false,
      "stateMutability": "view",
      "type": "function"
    },
    {
      "constant": true,
      "inputs": [],
      "name": "SAFETY_MARGIN_MIN",
      "outputs": [
        {
          "internalType": "uint256",
          "name": "",
          "type": "uint256"
        }
      ],
      "payable": false,
      "stateMutability": "view",
      "type": "function"
    },
    {
      "constant": false,
      "inputs": [
        {
          "internalType": "string",
          "name": "_name",
          "type": "string"
        },
        {
          "internalType": "string",
          "name": "_symbol",
          "type": "string"
        },
        {
          "internalType": "address",
          "name": "_underlying",
          "type": "address"
        },
        {
          "internalType": "address",
          "name": "_borrowable0",
          "type": "address"
        },
        {
          "internalType": "address",
          "name": "_borrowable1",
          "type": "address"
        }
      ],
      "name": "_initialize",
      "outputs": [],
      "payable": false,
      "stateMutability": "nonpayable",
      "type": "function"
    },
    {
      "constant": false,
      "inputs": [],
      "name": "_setFactory",
      "outputs": [],
      "payable": false,
      "stateMutability": "nonpayable",
      "type": "function"
    },
    {
      "constant": false,
      "inputs": [
        {
          "internalType": "uint256",
          "name": "newLiquidationFee",
          "type": "uint256"
        }
      ],
      "name": "_setLiquidationFee",
      "outputs": [],
      "payable": false,
      "stateMutability": "nonpayable",
      "type": "function"
    },
    {
      "constant": false,
      "inputs": [
        {
          "internalType": "uint256",
          "name": "newLiquidationIncentive",
          "type": "uint256"
        }
      ],
      "name": "_setLiquidationIncentive",
      "outputs": [],
      "payable": false,
      "stateMutability": "nonpayable",
      "type": "function"
    },
    {
      "constant": false,
      "inputs": [
        {
          "internalType": "uint256",
          "name": "newMTolerance",
          "type": "uint256"
        }
      ],
      "name": "_setMTolerance",
      "outputs": [],
      "payable": false,
      "stateMutability": "nonpayable",
      "type": "function"
    },
    {
      "constant": false,
      "inputs": [
        {
          "internalType": "uint256",
          "name": "newSafetyMargin",
          "type": "uint256"
        }
      ],
      "name": "_setSafetyMargin",
      "outputs": [],
      "payable": false,
      "stateMutability": "nonpayable",
      "type": "function"
    },
    {
      "constant": true,
      "inputs": [
        {
          "internalType": "address",
          "name": "",
          "type": "address"
        },
        {
          "internalType": "address",
          "name": "",
          "type": "address"
        }
      ],
      "name": "allowance",
      "outputs": [
        {
          "internalType": "uint256",
          "name": "",
          "type": "uint256"
        }
      ],
      "payable": false,
      "stateMutability": "view",
      "type": "function"
    },
    {
      "constant": false,
      "inputs": [
        {
          "internalType": "address",
          "name": "spender",
          "type": "address"
        },
        {
          "internalType": "uint256",
          "name": "value",
          "type": "uint256"
        }
      ],
      "name": "approve",
      "outputs": [
        {
          "internalType": "bool",
          "name": "",
          "type": "bool"
        }
      ],
      "payable": false,
      "stateMutability": "nonpayable",
      "type": "function"
    },
    {
      "constant": true,
      "inputs": [
        {
          "internalType": "address",
          "name": "",
          "type": "address"
        }
      ],
      "name": "balanceOf",
      "outputs": [
        {
          "internalType": "uint256",
          "name": "",
          "type": "uint256"
        }
      ],
      "payable": false,
      "stateMutability": "view",
      "type": "function"
    },
    {
      "constant": true,
      "inputs": [],
      "name": "borrowable0",
      "outputs": [
        {
          "internalType": "address",
          "name": "",
          "type": "address"
        }
      ],
      "payable": false,
      "stateMutability": "view",
      "type": "function"
    },
    {
      "constant": true,
      "inputs": [],
      "name": "borrowable1",
      "outputs": [
        {
          "internalType": "address",
          "name": "",
          "type": "address"
        }
      ],
      "payable": false,
      "stateMutability": "view",
      "type": "function"
    },
    {
      "constant": true,
      "inputs": [],
      "name": "decimals",
      "outputs": [
        {
          "internalType": "uint8",
          "name": "",
          "type": "uint8"
        }
      ],
      "payable": false,
      "stateMutability": "view",
      "type": "function"
    },
    {
      "constant": false,
      "inputs": [],
      "name": "exchangeRate",
      "outputs": [
        {
          "internalType": "uint256",
          "name": "",
          "type": "uint256"
        }
      ],
      "payable": false,
      "stateMutability": "nonpayable",
      "type": "function"
    },
    {
      "constant": true,
      "inputs": [],
      "name": "factory",
      "outputs": [
        {
          "internalType": "address",
          "name": "",
          "type": "address"
        }
      ],
      "payable": false,
      "stateMutability": "view",
      "type": "function"
    },
    {
      "constant": true,
      "inputs": [],
      "name": "liquidationFee",
      "outputs": [
        {
          "internalType": "uint256",
          "name": "",
          "type": "uint256"
        }
      ],
      "payable": false,
      "stateMutability": "view",
      "type": "function"
    },
    {
      "constant": true,
      "inputs": [],
      "name": "liquidationIncentive",
      "outputs": [
        {
          "internalType": "uint256",
          "name": "",
          "type": "uint256"
        }
      ],
      "payable": false,
      "stateMutability": "view",
      "type": "function"
    },
    {
      "constant": true,
      "inputs": [],
      "name": "liquidationPenalty",
      "outputs": [
        {
          "internalType": "uint256",
          "name": "",
          "type": "uint256"
        }
      ],
      "payable": false,
      "stateMutability": "view",
      "type": "function"
    },
    {
      "constant": true,
      "inputs": [],
      "name": "mTolerance",
      "outputs": [
        {
          "internalType": "uint256",
          "name": "",
          "type": "uint256"
        }
      ],
      "payable": false,
      "stateMutability": "view",
      "type": "function"
    },
    {
      "constant": false,
      "inputs": [
        {
          "internalType": "address",
          "name": "minter",
          "type": "address"
        }
      ],
      "name": "mint",
      "outputs": [
        {
          "internalType": "uint256",
          "name": "mintTokens",
          "type": "uint256"
        }
      ],
      "payable": false,
      "stateMutability": "nonpayable",
      "type": "function"
    },
    {
      "constant": true,
      "inputs": [],
      "name": "name",
      "outputs": [
        {
          "internalType": "string",
          "name": "",
          "type": "string"
        }
      ],
      "payable": false,
      "stateMutability": "view",
      "type": "function"
    },
    {
      "constant": true,
      "inputs": [
        {
          "internalType": "address",
          "name": "",
          "type": "address"
        }
      ],
      "name": "nonces",
      "outputs": [
        {
          "internalType": "uint256",
          "name": "",
          "type": "uint256"
        }
      ],
      "payable": false,
      "stateMutability": "view",
      "type": "function"
    },
    {
      "constant": false,
      "inputs": [
        {
          "internalType": "address",
          "name": "owner",
          "type": "address"
        },
        {
          "internalType": "address",
          "name": "spender",
          "type": "address"
        },
        {
          "internalType": "uint256",
          "name": "value",
          "type": "uint256"
        },
        {
          "internalType": "uint256",
          "name": "deadline",
          "type": "uint256"
        },
        {
          "internalType": "uint8",
          "name": "v",
          "type": "uint8"
        },
        {
          "internalType": "bytes32",
          "name": "r",
          "type": "bytes32"
        },
        {
          "internalType": "bytes32",
          "name": "s",
          "type": "bytes32"
        }
      ],
      "name": "permit",
      "outputs": [],
      "payable": false,
      "stateMutability": "nonpayable",
      "type": "function"
    },
    {
      "constant": false,
      "inputs": [
        {
          "internalType": "address",
          "name": "redeemer",
          "type": "address"
        }
      ],
      "name": "redeem",
      "outputs": [
        {
          "internalType": "uint256",
          "name": "redeemAmount",
          "type": "uint256"
        }
      ],
      "payable": false,
      "stateMutability": "nonpayable",
      "type": "function"
    },
    {
      "constant": true,
      "inputs": [],
      "name": "safetyMargin",
      "outputs": [
        {
          "internalType": "uint256",
          "name": "",
          "type": "uint256"
        }
      ],
      "payable": false,
      "stateMutability": "view",
      "type": "function"
    },
    {
      "constant": false,
      "inputs": [
        {
          "internalType": "address",
          "name": "to",
          "type": "address"
        }
      ],
      "name": "skim",
      "outputs": [],
      "payable": false,
      "stateMutability": "nonpayable",
      "type": "function"
    },
    {
      "constant": true,
      "inputs": [],
      "name": "symbol",
      "outputs": [
        {
          "internalType": "string",
          "name": "",
          "type": "string"
        }
      ],
      "payable": false,
      "stateMutability": "view",
      "type": "function"
    },
    {
      "constant": false,
      "inputs": [],
      "name": "sync",
      "outputs": [],
      "payable": false,
      "stateMutability": "nonpayable",
      "type": "function"
    },
    {
      "constant": true,
      "inputs": [],
      "name": "totalBalance",
      "outputs": [
        {
          "internalType": "uint256",
          "name": "",
          "type": "uint256"
        }
      ],
      "payable": false,
      "stateMutability": "view",
      "type": "function"
    },
    {
      "constant": true,
      "inputs": [],
      "name": "totalSupply",
      "outputs": [
        {
          "internalType": "uint256",
          "name": "",
          "type": "uint256"
        }
      ],
      "payable": false,
      "stateMutability": "view",
      "type": "function"
    },
    {
      "constant": false,
      "inputs": [
        {
          "internalType": "address",
          "name": "to",
          "type": "address"
        },
        {
          "internalType": "uint256",
          "name": "value",
          "type": "uint256"
        }
      ],
      "name": "transfer",
      "outputs": [
        {
          "internalType": "bool",
          "name": "",
          "type": "bool"
        }
      ],
      "payable": false,
      "stateMutability": "nonpayable",
      "type": "function"
    },
    {
      "constant": false,
      "inputs": [
        {
          "internalType": "address",
          "name": "from",
          "type": "address"
        },
        {
          "internalType": "address",
          "name": "to",
          "type": "address"
        },
        {
          "internalType": "uint256",
          "name": "value",
          "type": "uint256"
        }
      ],
      "name": "transferFrom",
      "outputs": [
        {
          "internalType": "bool",
          "name": "",
          "type": "bool"
        }
      ],
      "payable": false,
      "stateMutability": "nonpayable",
      "type": "function"
    },
    {
      "constant": true,
      "inputs": [],
      "name": "underlying",
      "outputs": [
        {
          "internalType": "address",
          "name": "",
          "type": "address"
        }
      ],
      "payable": false,
      "stateMutability": "view",
      "type": "function"
    },
    {
      "constant": false,
      "inputs": [],
      "name": "getTwapReserves",
      "outputs": [
        {
          "internalType": "uint112",
          "name": "twapReserve0",
          "type": "uint112"
        },
        {
          "internalType": "uint112",
          "name": "twapReserve1",
          "type": "uint112"
        }
      ],
      "payable": false,
      "stateMutability": "nonpayable",
      "type": "function"
    },
    {
      "constant": false,
      "inputs": [],
      "name": "getReserves",
      "outputs": [
        {
          "internalType": "uint112",
          "name": "reserve0",
          "type": "uint112"
        },
        {
          "internalType": "uint112",
          "name": "reserve1",
          "type": "uint112"
        }
      ],
      "payable": false,
      "stateMutability": "nonpayable",
      "type": "function"
    },
    {
      "constant": false,
      "inputs": [],
      "name": "getPrices",
      "outputs": [
        {
          "internalType": "uint256",
          "name": "price0",
          "type": "uint256"
        },
        {
          "internalType": "uint256",
          "name": "price1",
          "type": "uint256"
        }
      ],
      "payable": false,
      "stateMutability": "nonpayable",
      "type": "function"
    },
    {
      "constant": false,
      "inputs": [
        {
          "internalType": "address",
          "name": "from",
          "type": "address"
        },
        {
          "internalType": "uint256",
          "name": "value",
          "type": "uint256"
        }
      ],
      "name": "tokensUnlocked",
      "outputs": [
        {
          "internalType": "bool",
          "name": "",
          "type": "bool"
        }
      ],
      "payable": false,
      "stateMutability": "nonpayable",
      "type": "function"
    },
    {
      "constant": false,
      "inputs": [
        {
          "internalType": "address",
          "name": "borrower",
          "type": "address"
        },
        {
          "internalType": "uint256",
          "name": "amount0",
          "type": "uint256"
        },
        {
          "internalType": "uint256",
          "name": "amount1",
          "type": "uint256"
        }
      ],
      "name": "accountLiquidityAmounts",
      "outputs": [
        {
          "internalType": "uint256",
          "name": "liquidity",
          "type": "uint256"
        },
        {
          "internalType": "uint256",
          "name": "shortfall",
          "type": "uint256"
        }
      ],
      "payable": false,
      "stateMutability": "nonpayable",
      "type": "function"
    },
    {
      "constant": false,
      "inputs": [
        {
          "internalType": "address",
          "name": "borrower",
          "type": "address"
        }
      ],
      "name": "accountLiquidity",
      "outputs": [
        {
          "internalType": "uint256",
          "name": "liquidity",
          "type": "uint256"
        },
        {
          "internalType": "uint256",
          "name": "shortfall",
          "type": "uint256"
        }
      ],
      "payable": false,
      "stateMutability": "nonpayable",
      "type": "function"
    },
    {
      "constant": false,
      "inputs": [
        {
          "internalType": "address",
          "name": "borrower",
          "type": "address"
        },
        {
          "internalType": "address",
          "name": "borrowable",
          "type": "address"
        },
        {
          "internalType": "uint256",
          "name": "accountBorrows",
          "type": "uint256"
        }
      ],
      "name": "canBorrow",
      "outputs": [
        {
          "internalType": "bool",
          "name": "",
          "type": "bool"
        }
      ],
      "payable": false,
      "stateMutability": "nonpayable",
      "type": "function"
    },
    {
      "constant": false,
      "inputs": [
        {
          "internalType": "address",
          "name": "liquidator",
          "type": "address"
        },
        {
          "internalType": "address",
          "name": "borrower",
          "type": "address"
        },
        {
          "internalType": "uint256",
          "name": "repayAmount",
          "type": "uint256"
        }
      ],
      "name": "seize",
      "outputs": [
        {
          "internalType": "uint256",
          "name": "seizeTokens",
          "type": "uint256"
        }
      ],
      "payable": false,
      "stateMutability": "nonpayable",
      "type": "function"
    },
    {
      "constant": false,
      "inputs": [
        {
          "internalType": "address",
          "name": "redeemer",
          "type": "address"
        },
        {
          "internalType": "uint256",
          "name": "redeemAmount",
          "type": "uint256"
        },
        {
          "internalType": "bytes",
          "name": "data",
          "type": "bytes"
        }
      ],
      "name": "flashRedeem",
      "outputs": [],
      "payable": false,
      "stateMutability": "nonpayable",
      "type": "function"
    }
  ],
  "bytecode": "0x60806040526002805460ff19908116601217909155600b80549091166001179055670efcee47256c0000600d556305f5e100600e55670e27c49886e60000600f5566470de4df82000060105534801561005757600080fd5b50614c88806100676000396000f3fe608060405234801561001057600080fd5b50600436106103415760003560e01c80637069b442116101bd578063ba9a7a56116100f9578063d505accf116100a2578063dba2976e1161007c578063dba2976e14610a56578063dd62ed3e14610a73578063ec27f6dd14610aae578063fff6cae914610ab657610341565b8063d505accf146109e8578063daf8881814610a46578063db8cce3314610a4e57610341565b8063bd9a548b116100d3578063bd9a548b146108ee578063c45a0155146108f6578063c548e3c5146108fe57610341565b8063ba9a7a56146108b3578063bc25cf77146108bb578063bc9bd12a146105f757610341565b806395d89b4111610166578063a9059cbb11610140578063a9059cbb14610827578063ad7a672f14610860578063afc8276c14610868578063b2a02ff11461087057610341565b806395d89b41146107d45780639aac2c53146107dc578063a36a36301461081f57610341565b80637ecebe00116101975780637ecebe00146107665780638c765e941461079957806395a2251f146107a157610341565b80637069b4421461070e57806370a082311461072b5780637a349f7b1461075e57610341565b806333fabfd11161028c5780635a0f03c6116102355780636a6278421161020f5780636a6278421461065b5780636e01be101461068e5780636f13cb83146106c75780636f307dc31461070657610341565b80635a0f03c6146105ff578063618207281461064b5780636a184ad21461065357610341565b80634a5d316c116102665780634a5d316c146105d25780634fd42e17146105da578063552af0c1146105f757610341565b806333fabfd1146105ba5780633644e515146105c25780633ba0b9a9146105ca57610341565b806323b872dd116102ee5780632fef02f4116102c85780632fef02f41461058c57806330adf81f14610594578063313ce5671461059c57610341565b806323b872dd1461051057806323f5589a146105535780632fa5ae1b1461055b57610341565b806318160ddd1161031f57806318160ddd1461044557806319f3400d1461045f5780631ef63a79146104f357610341565b806306fdde03146103465780630902f1ac146103c3578063095ea7b3146103f8575b600080fd5b61034e610abe565b6040805160208082528351818301528351919283929083019185019080838360005b83811015610388578181015183820152602001610370565b50505050905090810190601f1680156103b55780820380516001836020036101000a031916815260200191505b509250505060405180910390f35b6103cb610b6a565b604080516dffffffffffffffffffffffffffff938416815291909216602082015281519081900390910190f35b6104316004803603604081101561040e57600080fd5b5073ffffffffffffffffffffffffffffffffffffffff8135169060200135610e4f565b604080519115158252519081900360200190f35b61044d610e66565b60408051918252519081900360200190f35b6104f16004803603606081101561047557600080fd5b73ffffffffffffffffffffffffffffffffffffffff823516916020810135918101906060810160408201356401000000008111156104b257600080fd5b8201836020820111156104c457600080fd5b803590602001918460018302840111640100000000831117156104e657600080fd5b509092509050610e6c565b005b6104f16004803603602081101561050957600080fd5b5035611186565b6104316004803603606081101561052657600080fd5b5073ffffffffffffffffffffffffffffffffffffffff813581169160208101359091169060400135611299565b61044d6113ae565b6105636113b9565b6040805173ffffffffffffffffffffffffffffffffffffffff9092168252519081900360200190f35b61044d6113da565b61044d6113e0565b6105a4611404565b6040805160ff9092168252519081900360200190f35b61044d61140d565b61044d611419565b61044d61141f565b6104f161146e565b6104f1600480360360208110156105f057600080fd5b503561151f565b61044d611639565b6106326004803603602081101561061557600080fd5b503573ffffffffffffffffffffffffffffffffffffffff16611645565b6040805192835260208301919091528051918290030190f35b61044d61167c565b61044d611685565b61044d6004803603602081101561067157600080fd5b503573ffffffffffffffffffffffffffffffffffffffff1661168b565b610431600480360360408110156106a457600080fd5b5073ffffffffffffffffffffffffffffffffffffffff8135169060200135611939565b610632600480360360608110156106dd57600080fd5b5073ffffffffffffffffffffffffffffffffffffffff8135169060208101359060400135611b2c565b610563611d2f565b6104f16004803603602081101561072457600080fd5b5035611d4b565b61044d6004803603602081101561074157600080fd5b503573ffffffffffffffffffffffffffffffffffffffff16611e5b565b6103cb611e6d565b61044d6004803603602081101561077c57600080fd5b503573ffffffffffffffffffffffffffffffffffffffff166120c5565b61044d6120d7565b61044d600480360360208110156107b757600080fd5b503573ffffffffffffffffffffffffffffffffffffffff166120dd565b61034e612301565b610431600480360360608110156107f257600080fd5b5073ffffffffffffffffffffffffffffffffffffffff813581169160208101359091169060400135612379565b61044d612513565b6104316004803603604081101561083d57600080fd5b5073ffffffffffffffffffffffffffffffffffffffff8135169060200135612519565b61044d612526565b61044d61252c565b61044d6004803603606081101561088657600080fd5b5073ffffffffffffffffffffffffffffffffffffffff813581169160208101359091169060400135612538565b61044d612a02565b6104f1600480360360208110156108d157600080fd5b503573ffffffffffffffffffffffffffffffffffffffff16612a08565b610632612b8b565b610563612e3b565b6104f1600480360360a081101561091457600080fd5b81019060208101813564010000000081111561092f57600080fd5b82018360208201111561094157600080fd5b8035906020019184600183028401116401000000008311171561096357600080fd5b91939092909160208101903564010000000081111561098157600080fd5b82018360208201111561099357600080fd5b803590602001918460018302840111640100000000831117156109b557600080fd5b919350915073ffffffffffffffffffffffffffffffffffffffff8135811691602081013582169160409091013516612e57565b6104f1600480360360e08110156109fe57600080fd5b5073ffffffffffffffffffffffffffffffffffffffff813581169160208101359091169060408101359060608101359060ff6080820135169060a08101359060c00135612fdd565b610563613021565b61044d61303d565b6104f160048036036020811015610a6c57600080fd5b5035613049565b61044d60048036036040811015610a8957600080fd5b5073ffffffffffffffffffffffffffffffffffffffff81358116916020013516613163565b61044d613180565b6104f1613185565b6000805460408051602060026001851615610100027fffffffffffffffffffffffffffffffffffffffffffffffffffffffffffffffff0190941693909304601f81018490048402820184019092528181529291830182828015610b625780601f10610b3757610100808354040283529160200191610b62565b820191906000526020600020905b815481529060010190602001808311610b4557829003601f168201915b505050505081565b600080600080610b78611e6d565b6dffffffffffffffffffffffffffff1691506dffffffffffffffffffffffffffff169150600080600860009054906101000a900473ffffffffffffffffffffffffffffffffffffffff1673ffffffffffffffffffffffffffffffffffffffff1663392f37e96040518163ffffffff1660e01b815260040160e06040518083038186803b158015610c0757600080fd5b505afa158015610c1b573d6000803e3d6000fd5b505050506040513d60e0811015610c3157600080fd5b508051602090910151600854604080517f0902f1ac0000000000000000000000000000000000000000000000000000000081529051939550919350600092839273ffffffffffffffffffffffffffffffffffffffff90921691630902f1ac916004808301926060929190829003018186803b158015610caf57600080fd5b505afa158015610cc3573d6000803e3d6000fd5b505050506040513d6060811015610cd957600080fd5b5080516020909101516dffffffffffffffffffffffffffff91821693501690506000610d0787878787613253565b90506000610d1784848888613253565b90506000610d5e610d59670de0b6b3a7640000610d4d82828289610d418a8463ffffffff61331e16565b9063ffffffff61339116565b9063ffffffff61331e16565b6133d3565b9050610d84610d7f670de0b6b3a7640000610d418c8563ffffffff61331e16565b613425565b9a50610da5610d7f670de0b6b3a7640000610d418b8563ffffffff61331e16565b995060648b6dffffffffffffffffffffffffffff16118015610dd7575060648a6dffffffffffffffffffffffffffff16115b610e4257604080517f08c379a000000000000000000000000000000000000000000000000000000000815260206004820152601f60248201527f496d7065726d61783a20494e53554646494349454e545f524553455256455300604482015290519081900360640190fd5b5050505050505050509091565b6000610e5c3384846134a8565b5060015b92915050565b60035481565b600b5460ff16610edd57604080517f08c379a000000000000000000000000000000000000000000000000000000000815260206004820152601360248201527f496d7065726d61783a205245454e544552454400000000000000000000000000604482015290519081900360640190fd5b600b80547fffffffffffffffffffffffffffffffffffffffffffffffffffffffffffffff00169055600a54831115610f7657604080517f08c379a000000000000000000000000000000000000000000000000000000000815260206004820152601b60248201527f496d7065726d61783a20494e53554646494349454e545f434153480000000000604482015290519081900360640190fd5b610f808484613517565b801561104c576040517facb86cbb0000000000000000000000000000000000000000000000000000000081523360048201818152602483018690526060604484019081526064840185905273ffffffffffffffffffffffffffffffffffffffff88169363acb86cbb93928892889288929190608401848480828437600081840152601f19601f82011690508083019250505095505050505050600060405180830381600087803b15801561103357600080fd5b505af1158015611047573d6000803e3d6000fd5b505050505b3060009081526004602052604081205490611091600161108561106d61141f565b610d4189670de0b6b3a764000063ffffffff61331e16565b9063ffffffff61372316565b9050808210156110ec576040517f08c379a0000000000000000000000000000000000000000000000000000000008152600401808060200182810382526024815260200180614bbd6024913960400191505060405180910390fd5b6110f63083613797565b6040805186815260208101849052815173ffffffffffffffffffffffffffffffffffffffff89169233927f3f693fff038bb8a046aa76d9516190ac7444f7d69cf952c4cbdc086fdef2d6fc929081900390910190a3505061115561385b565b5050600b80547fffffffffffffffffffffffffffffffffffffffffffffffffffffffffffffff001660011790555050565b600b5460ff166111f757604080517f08c379a000000000000000000000000000000000000000000000000000000000815260206004820152601360248201527f496d7065726d61783a205245454e544552454400000000000000000000000000604482015290519081900360640190fd5b600b80547fffffffffffffffffffffffffffffffffffffffffffffffffffffffffffffff0016905561123381600067011c37937e080000613931565b60108190556040805182815290517f21e5451a492a87031e8324e7e1e2ba821fdec0c40972393c9f74dd38bd88a6af9181900360200190a150600b80547fffffffffffffffffffffffffffffffffffffffffffffffffffffffffffffff00166001179055565b73ffffffffffffffffffffffffffffffffffffffff831660009081526005602090815260408083203384529091528120547fffffffffffffffffffffffffffffffffffffffffffffffffffffffffffffffff1461139857604080518082018252601e81527f496d7065726d61783a205452414e534645525f4e4f545f414c4c4f574544000060208083019190915273ffffffffffffffffffffffffffffffffffffffff8716600090815260058252838120338252909152919091205461136691849063ffffffff613a1c16565b73ffffffffffffffffffffffffffffffffffffffff851660009081526005602090815260408083203384529091529020555b6113a3848484613acd565b5060015b9392505050565b601054600f54015b90565b600b54610100900473ffffffffffffffffffffffffffffffffffffffff1681565b600e5481565b7f6e71edae12b1b97f4d1f60370fef10105fa2faae0126114a169c64845d6126c981565b60025460ff1681565b67011c37937e08000081565b60065481565b600354600a5460009190811580611434575080155b1561144b57670de0b6b3a7640000925050506113b6565b61146782610d4183670de0b6b3a764000063ffffffff61331e16565b9250505090565b60095473ffffffffffffffffffffffffffffffffffffffff16156114f357604080517f08c379a000000000000000000000000000000000000000000000000000000000815260206004820152601d60248201527f496d7065726d61783a20464143544f52595f414c52454144595f534554000000604482015290519081900360640190fd5b600980547fffffffffffffffffffffffff00000000000000000000000000000000000000001633179055565b600b5460ff1661159057604080517f08c379a000000000000000000000000000000000000000000000000000000000815260206004820152601360248201527f496d7065726d61783a205245454e544552454400000000000000000000000000604482015290519081900360640190fd5b600b80547fffffffffffffffffffffffffffffffffffffffffffffffffffffffffffffff001690556115d381670de0b6b3a7640000670e92596fd6290000613931565b600f8190556040805182815290517f8a9bb9067f9ecb13a322b548e6df3dd1bd10a54698834dac43ed8f0e765bf94d9181900360200190a150600b80547fffffffffffffffffffffffffffffffffffffffffffffffffffffffffffffff00166001179055565b670de0b6b3a764000081565b600080611673837fffffffffffffffffffffffffffffffffffffffffffffffffffffffffffffffff80611b2c565b91509150915091565b64e8d4a5100081565b600d5481565b600b5460009060ff166116ff57604080517f08c379a000000000000000000000000000000000000000000000000000000000815260206004820152601360248201527f496d7065726d61783a205245454e544552454400000000000000000000000000604482015290519081900360640190fd5b600b80547fffffffffffffffffffffffffffffffffffffffffffffffffffffffffffffff00169055600854604080517f70a08231000000000000000000000000000000000000000000000000000000008152306004820152905160009273ffffffffffffffffffffffffffffffffffffffff16916370a08231916024808301926020929190829003018186803b15801561179857600080fd5b505afa1580156117ac573d6000803e3d6000fd5b505050506040513d60208110156117c257600080fd5b5051600a549091506000906117de90839063ffffffff613b4d16565b90506118036117eb61141f565b610d4183670de0b6b3a764000063ffffffff61331e16565b92506003546000141561183157611822836103e863ffffffff613b4d16565b925061183160006103e8613b8f565b600083116118a057604080517f08c379a000000000000000000000000000000000000000000000000000000000815260206004820152601a60248201527f496d7065726d61783a204d494e545f414d4f554e545f5a45524f000000000000604482015290519081900360640190fd5b6118aa8484613b8f565b6040805182815260208101859052815173ffffffffffffffffffffffffffffffffffffffff87169233927f2f00e3cdd69a77be7ed215ec7b2a36784dd158f921fca79ac29deffa353fe6ee929081900390910190a3505061190961385b565b600b80547fffffffffffffffffffffffffffffffffffffffffffffffffffffffffffffff00166001179055919050565b73ffffffffffffffffffffffffffffffffffffffff821660009081526004602052604081205480831115611971576000915050610e60565b828103600061199a670de0b6b3a7640000610d4161198d61141f565b859063ffffffff61331e16565b90506000600b60019054906101000a900473ffffffffffffffffffffffffffffffffffffffff1673ffffffffffffffffffffffffffffffffffffffff16634d73e9ba886040518263ffffffff1660e01b8152600401808273ffffffffffffffffffffffffffffffffffffffff1673ffffffffffffffffffffffffffffffffffffffff16815260200191505060206040518083038186803b158015611a3d57600080fd5b505afa158015611a51573d6000803e3d6000fd5b505050506040513d6020811015611a6757600080fd5b5051600c54604080517f4d73e9ba00000000000000000000000000000000000000000000000000000000815273ffffffffffffffffffffffffffffffffffffffff8b8116600483015291519394506000939190921691634d73e9ba916024808301926020929190829003018186803b158015611ae257600080fd5b505afa158015611af6573d6000803e3d6000fd5b505050506040513d6020811015611b0c57600080fd5b505190506000611b1d848484613c40565b159a9950505050505050505050565b6000807fffffffffffffffffffffffffffffffffffffffffffffffffffffffffffffffff841415611bff57600b54604080517f4d73e9ba00000000000000000000000000000000000000000000000000000000815273ffffffffffffffffffffffffffffffffffffffff8881166004830152915161010090930490911691634d73e9ba91602480820192602092909190829003018186803b158015611bd057600080fd5b505afa158015611be4573d6000803e3d6000fd5b505050506040513d6020811015611bfa57600080fd5b505193505b7fffffffffffffffffffffffffffffffffffffffffffffffffffffffffffffffff831415611cc957600c54604080517f4d73e9ba00000000000000000000000000000000000000000000000000000000815273ffffffffffffffffffffffffffffffffffffffff888116600483015291519190921691634d73e9ba916024808301926020929190829003018186803b158015611c9a57600080fd5b505afa158015611cae573d6000803e3d6000fd5b505050506040513d6020811015611cc457600080fd5b505192505b6000611d14670de0b6b3a7640000610d41611ce261141f565b73ffffffffffffffffffffffffffffffffffffffff8a166000908152600460205260409020549063ffffffff61331e16565b9050611d21818686613c40565b92509250505b935093915050565b60085473ffffffffffffffffffffffffffffffffffffffff1681565b600b5460ff16611dbc57604080517f08c379a000000000000000000000000000000000000000000000000000000000815260206004820152601360248201527f496d7065726d61783a205245454e544552454400000000000000000000000000604482015290519081900360640190fd5b600b80547fffffffffffffffffffffffffffffffffffffffffffffffffffffffffffffff00169055611df581600164e8d4a51000613931565b600e8190556040805182815290517f1406e372b0b2138514c9e92f6c2fb8c03c4014b77165a13db9a2c53cdd859f6f9181900360200190a150600b80547fffffffffffffffffffffffffffffffffffffffffffffffffffffffffffffff00166001179055565b60046020526000908152604090205481565b6000806000600860009054906101000a900473ffffffffffffffffffffffffffffffffffffffff1673ffffffffffffffffffffffffffffffffffffffff1663ebeb31db6040518163ffffffff1660e01b815260040160206040518083038186803b158015611eda57600080fd5b505afa158015611eee573d6000803e3d6000fd5b505050506040513d6020811015611f0457600080fd5b5051600854604080517f252c09d70000000000000000000000000000000000000000000000000000000081527ffffffffffffffffffffffffffffffffffffffffffffffffffffffffffffffffe8401600482015290519293506000928392839273ffffffffffffffffffffffffffffffffffffffff9091169163252c09d791602480820192606092909190829003018186803b158015611fa357600080fd5b505afa158015611fb7573d6000803e3d6000fd5b505050506040513d6060811015611fcd57600080fd5b508051602082015160409283015160085484517f1df8c717000000000000000000000000000000000000000000000000000000008152945193975091955093506000928392839273ffffffffffffffffffffffffffffffffffffffff1691631df8c717916004808301926060929190829003018186803b15801561205057600080fd5b505afa158015612064573d6000803e3d6000fd5b505050506040513d606081101561207a57600080fd5b508051602082015160409092015190945090925090508581036120a781878603816120a157fe5b04613425565b99506120b781868503816120a157fe5b985050505050505050509091565b60076020526000908152604090205481565b600f5481565b600b5460009060ff1661215157604080517f08c379a000000000000000000000000000000000000000000000000000000000815260206004820152601360248201527f496d7065726d61783a205245454e544552454400000000000000000000000000604482015290519081900360640190fd5b600b80547fffffffffffffffffffffffffffffffffffffffffffffffffffffffffffffff00169055306000908152600460205260409020546121ad670de0b6b3a7640000610d416121a061141f565b849063ffffffff61331e16565b91506000821161221e57604080517f08c379a000000000000000000000000000000000000000000000000000000000815260206004820152601c60248201527f496d7065726d61783a2052454445454d5f414d4f554e545f5a45524f00000000604482015290519081900360640190fd5b600a5482111561228f57604080517f08c379a000000000000000000000000000000000000000000000000000000000815260206004820152601b60248201527f496d7065726d61783a20494e53554646494349454e545f434153480000000000604482015290519081900360640190fd5b6122993082613797565b6122a38383613517565b6040805183815260208101839052815173ffffffffffffffffffffffffffffffffffffffff86169233927f3f693fff038bb8a046aa76d9516190ac7444f7d69cf952c4cbdc086fdef2d6fc929081900390910190a35061190961385b565b60018054604080516020600284861615610100027fffffffffffffffffffffffffffffffffffffffffffffffffffffffffffffffff0190941693909304601f81018490048402820184019092528181529291830182828015610b625780601f10610b3757610100808354040283529160200191610b62565b600b54600c5460009173ffffffffffffffffffffffffffffffffffffffff61010090910481169181169085168214806123dd57508073ffffffffffffffffffffffffffffffffffffffff168573ffffffffffffffffffffffffffffffffffffffff16145b61244857604080517f08c379a000000000000000000000000000000000000000000000000000000000815260206004820152601c60248201527f496d7065726d61783a20494e56414c49445f424f52524f5741424c4500000000604482015290519081900360640190fd5b60008273ffffffffffffffffffffffffffffffffffffffff168673ffffffffffffffffffffffffffffffffffffffff16146124a3577fffffffffffffffffffffffffffffffffffffffffffffffffffffffffffffffff6124a5565b845b905060008273ffffffffffffffffffffffffffffffffffffffff168773ffffffffffffffffffffffffffffffffffffffff1614612502577fffffffffffffffffffffffffffffffffffffffffffffffffffffffffffffffff612504565b855b90506000611b1d898484611b2c565b60105481565b6000610e5c338484613acd565b600a5481565b670e92596fd629000081565b600b54600090610100900473ffffffffffffffffffffffffffffffffffffffff1633148061257d5750600c5473ffffffffffffffffffffffffffffffffffffffff1633145b6125e857604080517f08c379a000000000000000000000000000000000000000000000000000000000815260206004820152601660248201527f496d7065726d61783a20554e415554484f52495a454400000000000000000000604482015290519081900360640190fd5b60006125f384611645565b9150506000811161266557604080517f08c379a000000000000000000000000000000000000000000000000000000000815260206004820181905260248201527f496d7065726d61783a20494e53554646494349454e545f53484f525446414c4c604482015290519081900360640190fd5b600b54600090610100900473ffffffffffffffffffffffffffffffffffffffff1633141561269d57612695612b8b565b5090506126a9565b6126a5612b8b565b9150505b60006126c66126b661141f565b610d41878563ffffffff61331e16565b90506126e9670de0b6b3a7640000610d41600f548461331e90919063ffffffff16565b9350612774846040518060400160405280601e81526020017f496d7065726d61783a204c49515549444154494e475f544f4f5f4d5543480000815250600460008a73ffffffffffffffffffffffffffffffffffffffff1673ffffffffffffffffffffffffffffffffffffffff16815260200190815260200160002054613a1c9092919063ffffffff16565b73ffffffffffffffffffffffffffffffffffffffff80881660009081526004602052604080822093909355908916815220546127b6908563ffffffff61372316565b73ffffffffffffffffffffffffffffffffffffffff80891660008181526004602090815260409182902094909455805188815290519193928a16927fddf252ad1be2c89b69c2b068fc378daa952ba7f163c4a11628f55a4df523b3ef92918290030190a3601054156129f8576000612845670de0b6b3a7640000610d416010548561331e90919063ffffffff16565b90506000600960009054906101000a900473ffffffffffffffffffffffffffffffffffffffff1673ffffffffffffffffffffffffffffffffffffffff1663345ef9416040518163ffffffff1660e01b815260040160206040518083038186803b1580156128b157600080fd5b505afa1580156128c5573d6000803e3d6000fd5b505050506040513d60208110156128db57600080fd5b5051604080518082018252601e81527f496d7065726d61783a204c49515549444154494e475f544f4f5f4d554348000060208281019190915273ffffffffffffffffffffffffffffffffffffffff8c1660009081526004909152919091205491925061294f9190849063ffffffff613a1c16565b73ffffffffffffffffffffffffffffffffffffffff808a166000908152600460205260408082209390935590831681522054612991908363ffffffff61372316565b73ffffffffffffffffffffffffffffffffffffffff80831660008181526004602090815260409182902094909455805186815290519193928c16927fddf252ad1be2c89b69c2b068fc378daa952ba7f163c4a11628f55a4df523b3ef92918290030190a350505b5050509392505050565b6103e881565b600b5460ff16612a7957604080517f08c379a000000000000000000000000000000000000000000000000000000000815260206004820152601360248201527f496d7065726d61783a205245454e544552454400000000000000000000000000604482015290519081900360640190fd5b600b80547fffffffffffffffffffffffffffffffffffffffffffffffffffffffffffffff00169055600a54600854604080517f70a082310000000000000000000000000000000000000000000000000000000081523060048201529051612b5d938593612b5893919273ffffffffffffffffffffffffffffffffffffffff909116916370a08231916024808301926020929190829003018186803b158015612b2057600080fd5b505afa158015612b34573d6000803e3d6000fd5b505050506040513d6020811015612b4a57600080fd5b50519063ffffffff613b4d16565b613517565b50600b80547fffffffffffffffffffffffffffffffffffffffffffffffffffffffffffffff00166001179055565b600080600080612b99610b6a565b6dffffffffffffffffffffffffffff1691506dffffffffffffffffffffffffffff1691506000600860009054906101000a900473ffffffffffffffffffffffffffffffffffffffff1673ffffffffffffffffffffffffffffffffffffffff166318160ddd6040518163ffffffff1660e01b815260040160206040518083038186803b158015612c2757600080fd5b505afa158015612c3b573d6000803e3d6000fd5b505050506040513d6020811015612c5157600080fd5b5051600854604080517f392f37e90000000000000000000000000000000000000000000000000000000081529051929350600092839273ffffffffffffffffffffffffffffffffffffffff169163392f37e99160048083019260e0929190829003018186803b158015612cc357600080fd5b505afa158015612cd7573d6000803e3d6000fd5b505050506040513d60e0811015612ced57600080fd5b5080516020909101519092509050612d1782610d4187670de0b6b3a764000063ffffffff61331e16565b9450612d3581610d4186670de0b6b3a764000063ffffffff61331e16565b9350600080612d56670de0b6b3a7640000610d41898063ffffffff61331e16565b90506000612d76670de0b6b3a7640000610d41898063ffffffff61331e16565b9050612db1612d908361108584600363ffffffff61331e16565b610d41670de0b6b3a7640000610d4d8561108588600363ffffffff61331e16565b9250612dee9150849050610d41670de0b6b3a7640000610d4d8a838383612dde8a8363ffffffff61372316565b610d418e8c63ffffffff61331e16565b9750612e2f82610d41670de0b6b3a7640000610d4d89838383612e178a8363ffffffff61372316565b610d418e670de0b6b3a764000063ffffffff61331e16565b96505050505050509091565b60095473ffffffffffffffffffffffffffffffffffffffff1681565b60095473ffffffffffffffffffffffffffffffffffffffff163314612edd57604080517f08c379a000000000000000000000000000000000000000000000000000000000815260206004820152601660248201527f496d7065726d61783a20554e415554484f52495a454400000000000000000000604482015290519081900360640190fd5b612f5087878080601f01602080910402602001604051908101604052809392919081815260200183838082843760009201919091525050604080516020601f8b0181900481028201810190925289815292508991508890819084018382808284376000920191909152506140f792505050565b6008805473ffffffffffffffffffffffffffffffffffffffff9485167fffffffffffffffffffffffff000000000000000000000000000000000000000091821617909155600b8054938516610100027fffffffffffffffffffffff0000000000000000000000000000000000000000ff90941693909317909255600c805491909316911617905550505050565b61300d878787878787877f6e71edae12b1b97f4d1f60370fef10105fa2faae0126114a169c64845d6126c96141db565b6130188787876134a8565b50505050505050565b600c5473ffffffffffffffffffffffffffffffffffffffff1681565b6714d1120d7b16000081565b600b5460ff166130ba57604080517f08c379a000000000000000000000000000000000000000000000000000000000815260206004820152601360248201527f496d7065726d61783a205245454e544552454400000000000000000000000000604482015290519081900360640190fd5b600b80547fffffffffffffffffffffffffffffffffffffffffffffffffffffffffffffff001690556130fd81670de0b6b3a76400006714d1120d7b160000613931565b600d8190556040805182815290517fdff9a61839be6f6ce5ea77311cc351786a39a9f337c507ff35e7b358fd39c0439181900360200190a150600b80547fffffffffffffffffffffffffffffffffffffffffffffffffffffffffffffff00166001179055565b600560209081526000928352604080842090915290825290205481565b600181565b600b5460ff166131f657604080517f08c379a000000000000000000000000000000000000000000000000000000000815260206004820152601360248201527f496d7065726d61783a205245454e544552454400000000000000000000000000604482015290519081900360640190fd5b600b80547fffffffffffffffffffffffffffffffffffffffffffffffffffffffffffffff0016905561322661385b565b600b80547fffffffffffffffffffffffffffffffffffffffffffffffffffffffffffffff00166001179055565b60008061327284610d4188670de0b6b3a764000063ffffffff61331e16565b9050600061329284610d4188670de0b6b3a764000063ffffffff61331e16565b905060006132b2670de0b6b3a7640000610d41858563ffffffff61331e16565b905060006132f16132d5670de0b6b3a7640000610d41868063ffffffff61331e16565b611085670de0b6b3a7640000610d41888063ffffffff61331e16565b905061330f670de0b6b3a7640000610d41848463ffffffff61331e16565b9450505050505b949350505050565b60008261332d57506000610e60565b8282028284828161333a57fe5b04146113a7576040517f08c379a0000000000000000000000000000000000000000000000000000000008152600401808060200182810382526021815260200180614c336021913960400191505060405180910390fd5b60006113a783836040518060400160405280601a81526020017f536166654d6174683a206469766973696f6e206279207a65726f00000000000081525061447e565b60006003821115613416575080600160028204015b81811015613410578091506002818285816133ff57fe5b04018161340857fe5b0490506133e8565b50613420565b8115613420575060015b919050565b60006e01000000000000000000000000000082106134a457604080517f08c379a000000000000000000000000000000000000000000000000000000000815260206004820152601160248201527f496d7065726d61783a2053414645313132000000000000000000000000000000604482015290519081900360640190fd5b5090565b73ffffffffffffffffffffffffffffffffffffffff808416600081815260056020908152604080832094871680845294825291829020859055815185815291517f8c5be1e5ebec7d5bd14f71427d1e84f3dd0314c0f7b2291e5b200ac8c7c3b9259281900390910190a3505050565b600854604080518082018252601981527f7472616e7366657228616464726573732c75696e743235362900000000000000602091820152815173ffffffffffffffffffffffffffffffffffffffff86811660248301526044808301879052845180840390910181526064909201845291810180517bffffffffffffffffffffffffffffffffffffffffffffffffffffffff167fa9059cbb000000000000000000000000000000000000000000000000000000001781529251815160009560609594169382918083835b6020831061361d57805182527fffffffffffffffffffffffffffffffffffffffffffffffffffffffffffffffe090920191602091820191016135e0565b6001836020036101000a0380198251168184511680821785525050505050509050019150506000604051808303816000865af19150503d806000811461367f576040519150601f19603f3d011682016040523d82523d6000602084013e613684565b606091505b50915091508180156136b25750805115806136b257508080602001905160208110156136af57600080fd5b50515b61371d57604080517f08c379a000000000000000000000000000000000000000000000000000000000815260206004820152601960248201527f496d7065726d61783a205452414e534645525f4641494c454400000000000000604482015290519081900360640190fd5b50505050565b6000828201838110156113a757604080517f08c379a000000000000000000000000000000000000000000000000000000000815260206004820152601b60248201527f536166654d6174683a206164646974696f6e206f766572666c6f770000000000604482015290519081900360640190fd5b73ffffffffffffffffffffffffffffffffffffffff82166000908152600460205260409020546137cd908263ffffffff613b4d16565b73ffffffffffffffffffffffffffffffffffffffff8316600090815260046020526040902055600354613806908263ffffffff613b4d16565b60035560408051828152905160009173ffffffffffffffffffffffffffffffffffffffff8516917fddf252ad1be2c89b69c2b068fc378daa952ba7f163c4a11628f55a4df523b3ef9181900360200190a35050565b600854604080517f70a08231000000000000000000000000000000000000000000000000000000008152306004820152905173ffffffffffffffffffffffffffffffffffffffff909216916370a0823191602480820192602092909190829003018186803b1580156138cc57600080fd5b505afa1580156138e0573d6000803e3d6000fd5b505050506040513d60208110156138f657600080fd5b5051600a81905560408051918252517f8a0df8ef054fae2c3d2d19a7b322e864870cc9fd3cb07fb9526309c596244bf49181900360200190a1565b6139396144fd565b818310156139a857604080517f08c379a000000000000000000000000000000000000000000000000000000000815260206004820152601960248201527f496d7065726d61783a20494e56414c49445f53455454494e4700000000000000604482015290519081900360640190fd5b80831115613a1757604080517f08c379a000000000000000000000000000000000000000000000000000000000815260206004820152601960248201527f496d7065726d61783a20494e56414c49445f53455454494e4700000000000000604482015290519081900360640190fd5b505050565b60008184841115613ac5576040517f08c379a00000000000000000000000000000000000000000000000000000000081526004018080602001828103825283818151815260200191508051906020019080838360005b83811015613a8a578181015183820152602001613a72565b50505050905090810190601f168015613ab75780820380516001836020036101000a031916815260200191505b509250505060405180910390fd5b505050900390565b613ad78382611939565b613b4257604080517f08c379a000000000000000000000000000000000000000000000000000000000815260206004820181905260248201527f496d7065726d61783a20494e53554646494349454e545f4c4951554944495459604482015290519081900360640190fd5b613a17838383614616565b60006113a783836040518060400160405280601f81526020017f536166654d6174683a207375627472616374696f6e20756e646572666c6f7700815250613a1c565b600354613ba2908263ffffffff61372316565b60035573ffffffffffffffffffffffffffffffffffffffff8216600090815260046020526040902054613bdb908263ffffffff61372316565b73ffffffffffffffffffffffffffffffffffffffff831660008181526004602090815260408083209490945583518581529351929391927fddf252ad1be2c89b69c2b068fc378daa952ba7f163c4a11628f55a4df523b3ef9281900390910190a35050565b600080613c4b614b14565b600080613c56610b6a565b6dffffffffffffffffffffffffffff1691506dffffffffffffffffffffffffffff169150600080600860009054906101000a900473ffffffffffffffffffffffffffffffffffffffff1673ffffffffffffffffffffffffffffffffffffffff1663392f37e96040518163ffffffff1660e01b815260040160e06040518083038186803b158015613ce557600080fd5b505afa158015613cf9573d6000803e3d6000fd5b505050506040513d60e0811015613d0f57600080fd5b5080516020909101519092509050613d3982610d4186670de0b6b3a764000063ffffffff61331e16565b8552613d5781610d4185670de0b6b3a764000063ffffffff61331e16565b8560200181815250505050600080613d7485600d54600e5461472f565b915091506000600860009054906101000a900473ffffffffffffffffffffffffffffffffffffffff1673ffffffffffffffffffffffffffffffffffffffff166318160ddd6040518163ffffffff1660e01b815260040160206040518083038186803b158015613de257600080fd5b505afa158015613df6573d6000803e3d6000fd5b505050506040513d6020811015613e0c57600080fd5b5051905060008a8a8d838080613e228d8b614772565b919450925090506000613e478d610d418b670de0b6b3a764000063ffffffff61331e16565b9050613e6584610d4183670de0b6b3a764000063ffffffff61331e16565b9050613e92613e8283670de0b6b3a764000063ffffffff61372316565b610d41838563ffffffff61331e16565b90506000613eb28d610d418c670de0b6b3a764000063ffffffff61331e16565b9050613ed084610d4183670de0b6b3a764000063ffffffff61331e16565b9050613eed6117eb84670de0b6b3a764000063ffffffff61372316565b9050613f0b670de0b6b3a7640000610d418a8563ffffffff61331e16565b9850613f39613f2c670de0b6b3a7640000610d418a8563ffffffff61331e16565b8a9063ffffffff61372316565b9850613f5f670de0b6b3a7640000610d41613f526113ae565b8c9063ffffffff61331e16565b98505050505050600080600080613f768e8b614772565b919450925090506000613f9b8e610d418c670de0b6b3a764000063ffffffff61331e16565b9050613fb984610d4183670de0b6b3a764000063ffffffff61331e16565b9050613fd6613e8283670de0b6b3a764000063ffffffff61372316565b90506000613ff68e610d418d670de0b6b3a764000063ffffffff61331e16565b905061401484610d4183670de0b6b3a764000063ffffffff61331e16565b90506140316117eb84670de0b6b3a764000063ffffffff61372316565b905061404f670de0b6b3a7640000610d418b8563ffffffff61331e16565b955061407d614070670de0b6b3a7640000610d418b8563ffffffff61331e16565b879063ffffffff61372316565b95506140a3670de0b6b3a7640000610d416140966113ae565b899063ffffffff61331e16565b9550505050505060008186116140b957816140bb565b855b90508083106140dd579091039b5060009a50611d279950505050505050505050565b60009d50919091039a50611d279950505050505050505050565b815161410a906000906020850190614b2e565b50805161411e906001906020840190614b2e565b506040514690806052614be182396040805191829003605201822086516020978801208383018352600184527f310000000000000000000000000000000000000000000000000000000000000093880193909352815180880191909152808201929092527fc89efdaa54c0f20c7adf612882df0950f5a951637e0307cdcb4c672f298b8bc6606083015260808201939093523060a0808301919091528351808303909101815260c090910190925250805192019190912060065550565b4285101561424a57604080517f08c379a000000000000000000000000000000000000000000000000000000000815260206004820152601160248201527f496d7065726d61783a2045585049524544000000000000000000000000000000604482015290519081900360640190fd5b60065473ffffffffffffffffffffffffffffffffffffffff808a1660008181526007602090815260408083208054600180820190925582518085018a905280840196909652958e166060860152608085018d905260a085019590955260c08085018c90528151808603909101815260e0850182528051908301207f19010000000000000000000000000000000000000000000000000000000000006101008601526101028501969096526101228085019690965280518085039096018652610142840180825286519683019690962095839052610162840180825286905260ff8a166101828501526101a284018990526101c28401889052519193926101e2808201937fffffffffffffffffffffffffffffffffffffffffffffffffffffffffffffffe081019281900390910190855afa15801561438c573d6000803e3d6000fd5b50506040517fffffffffffffffffffffffffffffffffffffffffffffffffffffffffffffffe0015191505073ffffffffffffffffffffffffffffffffffffffff81161580159061440757508973ffffffffffffffffffffffffffffffffffffffff168173ffffffffffffffffffffffffffffffffffffffff16145b61447257604080517f08c379a000000000000000000000000000000000000000000000000000000000815260206004820152601b60248201527f496d7065726d61783a20494e56414c49445f5349474e41545552450000000000604482015290519081900360640190fd5b50505050505050505050565b600081836144e7576040517f08c379a0000000000000000000000000000000000000000000000000000000008152602060048201818152835160248401528351909283926044909101919085019080838360008315613a8a578181015183820152602001613a72565b5060008385816144f357fe5b0495945050505050565b600960009054906101000a900473ffffffffffffffffffffffffffffffffffffffff1673ffffffffffffffffffffffffffffffffffffffff1663f851a4406040518163ffffffff1660e01b815260040160206040518083038186803b15801561456557600080fd5b505afa158015614579573d6000803e3d6000fd5b505050506040513d602081101561458f57600080fd5b505173ffffffffffffffffffffffffffffffffffffffff16331461461457604080517f08c379a000000000000000000000000000000000000000000000000000000000815260206004820152601660248201527f496d7065726d61783a20554e415554484f52495a454400000000000000000000604482015290519081900360640190fd5b565b604080518082018252601b81527f496d7065726d61783a205452414e534645525f544f4f5f48494748000000000060208083019190915273ffffffffffffffffffffffffffffffffffffffff861660009081526004909152919091205461468491839063ffffffff613a1c16565b73ffffffffffffffffffffffffffffffffffffffff80851660009081526004602052604080822093909355908416815220546146c6908263ffffffff61372316565b73ffffffffffffffffffffffffffffffffffffffff80841660008181526004602090815260409182902094909455805185815290519193928716927fddf252ad1be2c89b69c2b068fc378daa952ba7f163c4a11628f55a4df523b3ef92918290030190a3505050565b60008061473d8585856148a6565b9150614768856147626ec097ce7bc90715b34b9f10000000008763ffffffff61339116565b856148a6565b9050935093915050565b8151602083015160009182918291908261479e670de0b6b3a7640000610d41858063ffffffff61331e16565b905060006147be670de0b6b3a7640000610d41858063ffffffff61331e16565b905060006147e4670de0b6b3a7640000610d418b610d4d8383888463ffffffff61331e16565b90506000614814670de0b6b3a7640000610d41614807878663ffffffff61372316565b8d9063ffffffff61331e16565b905061483e610d59670de0b6b3a7640000610d4d82828287610d4183838e8e63ffffffff61372316565b985061485c670de0b6b3a7640000610d418b8d63ffffffff61331e16565b97506148976148768561108585600363ffffffff61331e16565b610d41670de0b6b3a7640000610d4d866110858a600363ffffffff61331e16565b96505050505050509250925092565b600082670de0b6b3a764000014156148c75750670de0b6b3a76400006113a7565b8351602085015160006148ec670de0b6b3a7640000610d41858063ffffffff61331e16565b9050600061490c670de0b6b3a7640000610d41858063ffffffff61331e16565b905060006149258261108585600363ffffffff61331e16565b9050600061493e8461108585600363ffffffff61331e16565b9050600061495687610d41888663ffffffff61331e16565b905061497482610d4183670de0b6b3a764000063ffffffff61331e16565b9050614992670de0b6b3a7640000610d41838d63ffffffff61331e16565b9050600080670de0b6b3a764000083116149c5576149b783600363ffffffff61339116565b670de0b6b3a76400006149df565b670de0b6b3a76400006149df84600363ffffffff61331e16565b915091506149ef8383838e614a16565b9950614a0588610d418c8c63ffffffff61331e16565b9d9c50505050505050505050505050565b6000805b60ff811015614a81576000614a3a6002610d41878963ffffffff613b4d16565b9050614a4c868263ffffffff61372316565b9250838111614a5d57506133169050565b614a678784614a8a565b15614a7457829450614a78565b8295505b50600101614a1a565b50949350505050565b600080614ac3614aa184600363ffffffff61331e16565b611085670de0b6b3a7640000610d4187610d4d8383838063ffffffff61331e16565b90506000614aec670de0b6b3a7640000610d4186610d4d838383838d600363ffffffff61331e16565b90508082118015614b0b575084614b09838363ffffffff613b4d16565b115b95945050505050565b604051806040016040528060008152602001600081525090565b828054600181600116156101000203166002900490600052602060002090601f016020900481019282601f10614b6f57805160ff1916838001178555614b9c565b82800160010185558215614b9c579182015b82811115614b9c578251825591602001919060010190614b81565b506134a4926113b69250905b808211156134a45760008155600101614ba856fe496d7065726d61783a20494e53554646494349454e545f52454445454d5f544f4b454e53454950373132446f6d61696e28737472696e67206e616d652c737472696e672076657273696f6e2c75696e7432353620636861696e49642c6164647265737320766572696679696e67436f6e747261637429536166654d6174683a206d756c7469706c69636174696f6e206f766572666c6f77a265627a7a72315820bcc8c1bae97aaf823281ddf6382afc5f748e3564334a4b4826ca4ee5f0fa7c1864736f6c63430005100032",
  "source": "pragma solidity =0.5.16;\r\n\r\nimport \"./PoolToken.sol\";\r\nimport \"./CStorage.sol\";\r\nimport \"./CSetter.sol\";\r\nimport \"./interfaces/IERC20.sol\";\r\nimport \"./interfaces/IBorrowable.sol\";\r\nimport \"./interfaces/ICollateral.sol\";\r\nimport \"./interfaces/IFactory.sol\";\r\nimport \"./interfaces/IImpermaxCallee.sol\";\r\nimport \"./interfaces/IBaseV1Pair.sol\";\r\nimport \"./libraries/Math.sol\";\r\n\r\ncontract Collateral is ICollateral, PoolToken, CStorage, CSetter {\r\n\tconstructor() public {}\r\n\r\n\t/*** Collateralization Model ***/\r\n\r\n\tfunction getTwapReserves() public returns(uint112 twapReserve0, uint112 twapReserve1) {\r\n\t\tuint length = IBaseV1Pair(underlying).observationLength();\r\n\t\t(uint lastTimestamp, uint lastReserve0Cumulative, uint lastReserve1Cumulative) = IBaseV1Pair(underlying).observations(length-2);\r\n\t\t(uint reserve0Cumulative, uint reserve1Cumulative, uint timestamp) = IBaseV1Pair(underlying).currentCumulativePrices();\r\n\t\tuint timeElapsed = timestamp - lastTimestamp;\r\n\t\ttwapReserve0 = safe112((reserve0Cumulative - lastReserve0Cumulative) / timeElapsed);\r\n\t\ttwapReserve1 = safe112((reserve1Cumulative - lastReserve1Cumulative) / timeElapsed);\r\n\t}\r\n\r\n\tfunction getReserves() public returns (uint112 reserve0, uint112 reserve1) {\r\n\t\t(uint256 _twapReserve0, uint256 _twapReserve1) = getTwapReserves();\r\n\r\n\t\t(uint256 decimals0, uint256 decimals1,,,,,) = IBaseV1Pair(underlying).metadata();\r\n\t\t(uint256 _currReserve0, uint256 _currReserve1, ) = IBaseV1Pair(underlying).getReserves();\r\n\t\t\r\n\t\tuint256 twapK = _k(_twapReserve0, _twapReserve1, decimals0, decimals1);\r\n\t\tuint256 currK = _k(_currReserve0, _currReserve1, decimals0, decimals1);\r\n\r\n\t\tuint256 _adjustment = Math.sqrt(Math.sqrt(currK.mul(1e18).div(twapK).mul(1e18)).mul(1e18));\r\n\t\treserve0 = safe112(_twapReserve0.mul(_adjustment).div(1e18));\r\n\t\treserve1 = safe112(_twapReserve1.mul(_adjustment).div(1e18));\r\n\r\n\t\trequire(reserve0 > 100 && reserve1 > 100, \"Impermax: INSUFFICIENT_RESERVES\");\r\n\t}\r\n\r\n\tfunction getPrices() public returns (uint256 price0, uint256 price1) {\r\n\t\t(uint256 reserve0, uint256 reserve1) = getReserves();\r\n\t\tuint256 t = IBaseV1Pair(underlying).totalSupply();\r\n\t\t(uint256 decimals0, uint256 decimals1,,,,,) = IBaseV1Pair(underlying).metadata();\r\n\t\t\r\n\t\treserve0 = reserve0.mul(1e18).div(decimals0);\r\n\t\treserve1 = reserve1.mul(1e18).div(decimals1);\r\n\t\tuint256 f;\r\n\t\t{\r\n\t\t\tuint256 a = reserve0.mul(reserve0).div(1e18);\r\n\t\t\tuint256 b = reserve1.mul(reserve1).div(1e18);\r\n\t\t\tf = a.mul(3).add(b).mul(1e18).div(b.mul(3).add(a));\r\n\t\t}\r\n\t\tprice0 = t.mul(f).div(f.add(1e18)).mul(1e18).div(reserve0).mul(1e18).div(decimals0);\r\n\t\tprice1 = t.mul(1e18).div(f.add(1e18)).mul(1e18).div(reserve1).mul(1e18).div(decimals1);\r\n\t}\r\n\r\n\tfunction _k(uint256 x, uint256 y, uint256 d0, uint256 d1) internal pure returns (uint256) {\r\n\t\tuint _x = x.mul(1e18).div(d0);\r\n\t\tuint _y = y.mul(1e18).div(d1);\r\n\t\tuint _a = _x.mul(_y).div(1e18);\r\n\t\tuint _b = _x.mul(_x).div(1e18).add(_y.mul(_y).div(1e18));\r\n\t\treturn _a.mul(_b).div(1e18);  // x3y+y3x >= k\r\n\t}\r\n\r\n\tfunction _fm(uint256 p1, uint256 m) internal pure returns (bool) {\r\n\t\tuint256 a = m.mul(m).div(1e18).mul(m).div(1e18).add(m.mul(3));\r\n\t\tuint256 b = p1.mul(3).mul(m).div(1e18).mul(m).div(1e18);\r\n\t\treturn a > b && a.sub(b) > p1;\r\n\t}\r\n\r\n\tfunction _get_m(uint256 p1, uint256 a, uint256 b, uint256 _mTolerance) internal pure returns (uint256 m) {\r\n\t\tfor (uint256 i = 0; i < 255; i++) {\r\n\t\t\tuint256 mid = b.sub(a).div(2);\r\n\t\t\tm = a.add(mid);\r\n\t\t\tif (mid <= _mTolerance) {\r\n\t\t\t\treturn m;\r\n\t\t\t}\r\n\t\t\tif (_fm(p1, m)) {\r\n\t\t\t\tb = m;\r\n\t\t\t} else {\r\n\t\t\t\ta = m;\r\n\t\t\t}\r\n\t\t}\r\n\t}\r\n\r\n\tfunction _reserveRatioSwingGivenPriceSwing(ReserveInfo memory reserveInfo, uint256 _priceSwing, uint256 _mTolerance) internal pure returns (uint256 reserveRatioSwing) {\r\n\t\tif (_priceSwing == 1e18) {\r\n\t\t\treturn 1e18;\r\n\t\t}\r\n\r\n\t\tuint256 x = reserveInfo.x;\r\n\t\tuint256 y = reserveInfo.y;\r\n\r\n\t\tuint256 a = x.mul(x).div(1e18);\r\n\t\tuint256 b = y.mul(y).div(1e18);\r\n\t\tuint256 c = a.mul(3).add(b);\r\n\t\tuint256 d = b.mul(3).add(a);\r\n\t\tuint256 p1 = y.mul(c).div(x);\r\n\t\tp1 = p1.mul(1e18).div(d);\r\n\t\tp1 = p1.mul(_priceSwing).div(1e18);\r\n\r\n\t\t(uint256 lower, uint256 upper) = p1 > 1e18 ? (uint256(1e18), p1.mul(3)) : (p1.div(3), uint256(1e18));\r\n\t\treserveRatioSwing = _get_m(p1, lower, upper, _mTolerance);\r\n\t\treserveRatioSwing = reserveRatioSwing.mul(x).div(y);\r\n\t}\r\n\r\n\tfunction _safetyMarginReserveRatioSwings(ReserveInfo memory reserveInfo, uint256 _safetyMargin, uint256 _mTolerance) internal pure returns (uint256 ratioSwingA, uint256 ratioSwingB) {\r\n\t\tratioSwingA = _reserveRatioSwingGivenPriceSwing(reserveInfo, _safetyMargin, _mTolerance);\r\n\t\tratioSwingB = _reserveRatioSwingGivenPriceSwing(reserveInfo, uint256(1e36).div(_safetyMargin), _mTolerance);\r\n\t}\r\n\r\n\tfunction _reserveDeltas(ReserveInfo memory reserveInfo, uint256 m) internal pure returns (uint256 deltaX, uint256 deltaY, uint256 priceFactor) {\r\n\t\tuint256 x = reserveInfo.x;\r\n\t\tuint256 y = reserveInfo.y;\r\n\t\tuint256 a = x.mul(x).div(1e18);\r\n\t\tuint256 b = y.mul(y).div(1e18);\r\n\t\tuint256 c = b.mul(m).div(1e18).mul(m).div(1e18);\r\n\t\tuint256 d = m.mul(a.add(c)).div(1e18);\r\n\t\tdeltaX = Math.sqrt(Math.sqrt(a.add(b).mul(1e18).div(d).mul(1e18)).mul(1e18));\r\n\t\tdeltaY = deltaX.mul(m).div(1e18);\r\n\t\tpriceFactor = a.mul(3).add(c).mul(1e18).div(c.mul(3).add(a));\r\n\t}\r\n\r\n\tstruct ReserveInfo {\r\n\t\tuint256 x;\r\n\t\tuint256 y;\r\n\t}\r\n\r\n\t// returns liquidity in  collateral's underlying\r\n\tfunction _calculateLiquidity(\r\n\t\tuint256 _amountCollateral,\r\n\t\tuint256 _amount0,\r\n\t\tuint256 _amount1\r\n\t) internal returns (uint256 liquidity, uint256 shortfall) {\r\n\t\tReserveInfo memory reserveInfo;\r\n\t\t(uint256 reserve0, uint256 reserve1) = getReserves();\r\n\t\t{\r\n\t\t\t(uint256 decimals0, uint256 decimals1,,,,,) = IBaseV1Pair(underlying).metadata();\r\n\t\t\treserveInfo.x = reserve0.mul(1e18).div(decimals0);\r\n\t\t\treserveInfo.y = reserve1.mul(1e18).div(decimals1);\r\n\t\t}\r\n\t\t(uint256 ratioSwingA, uint256 ratioSwingB) = _safetyMarginReserveRatioSwings(reserveInfo, safetyMargin, mTolerance);\r\n\t\tuint256 totalUnderlying = IBaseV1Pair(underlying).totalSupply();\r\n\t\tuint256 collateralNeededA;\r\n\t\tuint256 amount0 = _amount0;\r\n\t\tuint256 amount1 = _amount1;\r\n\t\tuint256 amountCollateral = _amountCollateral;\r\n\t\t{\r\n\t\t\t(uint256 dx1, uint256 dy1, uint256 a1) = _reserveDeltas(reserveInfo, ratioSwingA);\r\n\t\t\tuint256 price0 = totalUnderlying.mul(1e18).div(reserve0);\r\n\t\t\tprice0 = price0.mul(1e18).div(dx1);\r\n\t\t\tprice0 = price0.mul(a1).div(a1.add(1e18));\r\n\t\t\tuint256 price1 = totalUnderlying.mul(1e18).div(reserve1);\r\n\t\t\tprice1 = price1.mul(1e18).div(dy1);\r\n\t\t\tprice1 = price1.mul(1e18).div(a1.add(1e18));\r\n\t\t\tcollateralNeededA = amount0.mul(price0).div(1e18);\r\n\t\t\tcollateralNeededA = collateralNeededA.add(amount1.mul(price1).div(1e18));\r\n\t\t\tcollateralNeededA = collateralNeededA.mul(liquidationPenalty()).div(1e18);\r\n\t\t}\r\n\t\tuint256 collateralNeededB;\r\n\t\t{\r\n\t\t\t(uint256 dx2, uint256 dy2, uint256 a2) = _reserveDeltas(reserveInfo, ratioSwingB);\r\n\t\t\tuint256 price0 = totalUnderlying.mul(1e18).div(reserve0);\r\n\t\t\tprice0 = price0.mul(1e18).div(dx2);\r\n\t\t\tprice0 = price0.mul(a2).div(a2.add(1e18));\r\n\t\t\tuint256 price1 = totalUnderlying.mul(1e18).div(reserve1);\r\n\t\t\tprice1 = price1.mul(1e18).div(dy2);\r\n\t\t\tprice1 = price1.mul(1e18).div(a2.add(1e18));\r\n\t\t\tcollateralNeededB = amount0.mul(price0).div(1e18);\r\n\t\t\tcollateralNeededB = collateralNeededB.add(amount1.mul(price1).div(1e18));\r\n\t\t\tcollateralNeededB = collateralNeededB.mul(liquidationPenalty()).div(1e18);\r\n\t\t}\t\t\r\n\t\tuint256 collateralNeeded = (collateralNeededA > collateralNeededB) ? collateralNeededA : collateralNeededB;\r\n\t\tif (amountCollateral >= collateralNeeded) {\r\n\t\t\treturn (amountCollateral - collateralNeeded, 0);\r\n\t\t} else {\r\n\t\t\treturn (0, collateralNeeded - amountCollateral);\r\n\t\t}\r\n\t}\r\n\r\n\t/*** ERC20 ***/\r\n\r\n\tfunction _transfer(\r\n\t\taddress from,\r\n\t\taddress to,\r\n\t\tuint256 value\r\n\t) internal {\r\n\t\trequire(tokensUnlocked(from, value), \"Impermax: INSUFFICIENT_LIQUIDITY\");\r\n\t\tsuper._transfer(from, to, value);\r\n\t}\r\n\r\n\tfunction tokensUnlocked(address from, uint256 value) public returns (bool) {\r\n\t\tuint256 _balance = balanceOf[from];\r\n\t\tif (value > _balance) return false;\r\n\t\tuint256 finalBalance = _balance - value;\r\n\t\tuint256 amountCollateral = finalBalance.mul(exchangeRate()).div(1e18);\r\n\t\tuint256 amount0 = IBorrowable(borrowable0).borrowBalance(from);\r\n\t\tuint256 amount1 = IBorrowable(borrowable1).borrowBalance(from);\r\n\t\t(, uint256 shortfall) =\r\n\t\t\t_calculateLiquidity(amountCollateral, amount0, amount1);\r\n\t\treturn shortfall == 0;\r\n\t}\r\n\r\n\t/*** Collateral ***/\r\n\r\n\tfunction accountLiquidityAmounts(\r\n\t\taddress borrower,\r\n\t\tuint256 amount0,\r\n\t\tuint256 amount1\r\n\t) public returns (uint256 liquidity, uint256 shortfall) {\r\n\t\tif (amount0 == uint256(-1))\r\n\t\t\tamount0 = IBorrowable(borrowable0).borrowBalance(borrower);\r\n\t\tif (amount1 == uint256(-1))\r\n\t\t\tamount1 = IBorrowable(borrowable1).borrowBalance(borrower);\r\n\t\tuint256 amountCollateral =\r\n\t\t\tbalanceOf[borrower].mul(exchangeRate()).div(1e18);\r\n\t\treturn _calculateLiquidity(amountCollateral, amount0, amount1);\r\n\t}\r\n\r\n\tfunction accountLiquidity(address borrower)\r\n\t\tpublic\r\n\t\treturns (uint256 liquidity, uint256 shortfall)\r\n\t{\r\n\t\treturn accountLiquidityAmounts(borrower, uint256(-1), uint256(-1));\r\n\t}\r\n\r\n\tfunction canBorrow(\r\n\t\taddress borrower,\r\n\t\taddress borrowable,\r\n\t\tuint256 accountBorrows\r\n\t) public returns (bool) {\r\n\t\taddress _borrowable0 = borrowable0;\r\n\t\taddress _borrowable1 = borrowable1;\r\n\t\trequire(\r\n\t\t\tborrowable == _borrowable0 || borrowable == _borrowable1,\r\n\t\t\t\"Impermax: INVALID_BORROWABLE\"\r\n\t\t);\r\n\t\tuint256 amount0 =\r\n\t\t\tborrowable == _borrowable0 ? accountBorrows : uint256(-1);\r\n\t\tuint256 amount1 =\r\n\t\t\tborrowable == _borrowable1 ? accountBorrows : uint256(-1);\r\n\t\t(, uint256 shortfall) =\r\n\t\t\taccountLiquidityAmounts(borrower, amount0, amount1);\r\n\t\treturn shortfall == 0;\r\n\t}\r\n\r\n\t// this function must be called from borrowable0 or borrowable1\r\n\tfunction seize(\r\n\t\taddress liquidator,\r\n\t\taddress borrower,\r\n\t\tuint256 repayAmount\r\n\t) external returns (uint256 seizeTokens) {\r\n\t\trequire(\r\n\t\t\tmsg.sender == borrowable0 || msg.sender == borrowable1,\r\n\t\t\t\"Impermax: UNAUTHORIZED\"\r\n\t\t);\r\n\r\n\t\t(, uint256 shortfall) = accountLiquidity(borrower);\r\n\t\trequire(shortfall > 0, \"Impermax: INSUFFICIENT_SHORTFALL\");\r\n\r\n\t\tuint256 price;\r\n\t\tif (msg.sender == borrowable0) (price, ) = getPrices();\r\n\t\telse (, price) = getPrices();\r\n\r\n\t\tuint256 collateralEquivalent = repayAmount.mul(price).div(exchangeRate());\r\n\r\n\t\tseizeTokens = collateralEquivalent\r\n\t\t\t.mul(liquidationIncentive)\r\n\t\t\t.div(1e18);\r\n\r\n\t\tbalanceOf[borrower] = balanceOf[borrower].sub(\r\n\t\t\tseizeTokens,\r\n\t\t\t\"Impermax: LIQUIDATING_TOO_MUCH\"\r\n\t\t);\r\n\t\tbalanceOf[liquidator] = balanceOf[liquidator].add(seizeTokens);\r\n\t\temit Transfer(borrower, liquidator, seizeTokens);\r\n\r\n\t\tif (liquidationFee > 0) {\r\n\t\t\tuint256 seizeFee = collateralEquivalent.mul(liquidationFee).div(1e18);\r\n\t\t\taddress reservesManager = IFactory(factory).reservesManager();\r\n\t\t\tbalanceOf[borrower] = balanceOf[borrower].sub(seizeFee, \"Impermax: LIQUIDATING_TOO_MUCH\");\r\n\t\t\tbalanceOf[reservesManager] = balanceOf[reservesManager].add(seizeFee);\r\n\t\t\temit Transfer(borrower, reservesManager, seizeFee);\r\n\t\t}\r\n\t}\r\n\r\n\t// this low-level function should be called from another contract\r\n\tfunction flashRedeem(\r\n\t\taddress redeemer,\r\n\t\tuint256 redeemAmount,\r\n\t\tbytes calldata data\r\n\t) external nonReentrant update {\r\n\t\trequire(redeemAmount <= totalBalance, \"Impermax: INSUFFICIENT_CASH\");\r\n\r\n\t\t// optimistically transfer funds\r\n\t\t_safeTransfer(redeemer, redeemAmount);\r\n\t\tif (data.length > 0)\r\n\t\t\tIImpermaxCallee(redeemer).impermaxRedeem(msg.sender, redeemAmount, data);\r\n\r\n\t\tuint256 redeemTokens = balanceOf[address(this)];\r\n\t\tuint256 declaredRedeemTokens =\r\n\t\t\tredeemAmount.mul(1e18).div(exchangeRate()).add(1); // rounded up\r\n\t\trequire(\r\n\t\t\tredeemTokens >= declaredRedeemTokens,\r\n\t\t\t\"Impermax: INSUFFICIENT_REDEEM_TOKENS\"\r\n\t\t);\r\n\r\n\t\t_burn(address(this), redeemTokens);\r\n\t\temit Redeem(msg.sender, redeemer, redeemAmount, redeemTokens);\r\n\t}\r\n\r\n\tfunction safe112(uint256 n) internal pure returns (uint112) {\r\n\t\trequire(n < 2**112, \"Impermax: SAFE112\");\r\n\t\treturn uint112(n);\r\n\t}\r\n}",
  "sourcePath": "C:\\Users\\simor\\Desktop\\impermax-x-samm\\contracts\\Collateral.sol",
  "compiler": {
    "name": "solc",
    "version": "0.5.16+commit.9c3226ce.Emscripten.clang"
  },
  "schemaVersion": "3.3.2",
  "updatedAt": "2023-10-04T16:00:32.645Z",
  "devdoc": {
    "methods": {}
  },
  "userdoc": {
    "methods": {
      "_setFactory()": {
        "notice": "* Initialize **"
      },
      "accountLiquidityAmounts(address,uint256,uint256)": {
        "notice": "* Collateral **"
      },
      "getTwapReserves()": {
        "notice": "* Collateralization Model **"
      }
    }
  }
}