{
  "contractName": "ImpermaxChef",
  "abi": [
    {
      "inputs": [
        {
          "internalType": "address",
          "name": "_rewardToken",
          "type": "address"
        },
        {
          "internalType": "uint256",
          "name": "_rewardPerSec",
          "type": "uint256"
        }
      ],
      "stateMutability": "nonpayable",
      "type": "constructor"
    },
    {
      "anonymous": false,
      "inputs": [
        {
          "indexed": true,
          "internalType": "address",
          "name": "borrowable",
          "type": "address"
        },
        {
          "indexed": true,
          "internalType": "address",
          "name": "user",
          "type": "address"
        },
        {
          "indexed": false,
          "internalType": "uint256",
          "name": "amount",
          "type": "uint256"
        }
      ],
      "name": "Harvest",
      "type": "event"
    },
    {
      "anonymous": false,
      "inputs": [
        {
          "indexed": true,
          "internalType": "address",
          "name": "borrowable",
          "type": "address"
        },
        {
          "indexed": false,
          "internalType": "uint256",
          "name": "allocPoint",
          "type": "uint256"
        },
        {
          "indexed": true,
          "internalType": "contract IRewarder",
          "name": "rewarder",
          "type": "address"
        },
        {
          "indexed": false,
          "internalType": "bool",
          "name": "overwrite",
          "type": "bool"
        }
      ],
      "name": "LogSetPool",
      "type": "event"
    },
    {
      "anonymous": false,
      "inputs": [
        {
          "indexed": false,
          "internalType": "uint256",
          "name": "rewardPerSec",
          "type": "uint256"
        }
      ],
      "name": "LogSetReward",
      "type": "event"
    },
    {
      "anonymous": false,
      "inputs": [
        {
          "indexed": true,
          "internalType": "address",
          "name": "borrowable",
          "type": "address"
        },
        {
          "indexed": false,
          "internalType": "uint256",
          "name": "lastRewardTime",
          "type": "uint256"
        },
        {
          "indexed": false,
          "internalType": "uint256",
          "name": "totalShares",
          "type": "uint256"
        },
        {
          "indexed": false,
          "internalType": "uint256",
          "name": "accRewardPerShare",
          "type": "uint256"
        }
      ],
      "name": "LogUpdatePool",
      "type": "event"
    },
    {
      "anonymous": false,
      "inputs": [
        {
          "indexed": true,
          "internalType": "address",
          "name": "previousOwner",
          "type": "address"
        },
        {
          "indexed": true,
          "internalType": "address",
          "name": "newOwner",
          "type": "address"
        }
      ],
      "name": "OwnershipTransferred",
      "type": "event"
    },
    {
      "anonymous": false,
      "inputs": [
        {
          "indexed": true,
          "internalType": "address",
          "name": "borrowable",
          "type": "address"
        },
        {
          "indexed": true,
          "internalType": "address",
          "name": "borrower",
          "type": "address"
        },
        {
          "indexed": false,
          "internalType": "uint256",
          "name": "borrowBalance",
          "type": "uint256"
        },
        {
          "indexed": false,
          "internalType": "uint256",
          "name": "borrowIndex",
          "type": "uint256"
        }
      ],
      "name": "TrackBorrow",
      "type": "event"
    },
    {
      "inputs": [],
      "name": "claimOwnership",
      "outputs": [],
      "stateMutability": "nonpayable",
      "type": "function"
    },
    {
      "inputs": [],
      "name": "owner",
      "outputs": [
        {
          "internalType": "address",
          "name": "",
          "type": "address"
        }
      ],
      "stateMutability": "view",
      "type": "function"
    },
    {
      "inputs": [],
      "name": "pendingOwner",
      "outputs": [
        {
          "internalType": "address",
          "name": "",
          "type": "address"
        }
      ],
      "stateMutability": "view",
      "type": "function"
    },
    {
      "inputs": [
        {
          "internalType": "address",
          "name": "",
          "type": "address"
        }
      ],
      "name": "poolInfo",
      "outputs": [
        {
          "internalType": "uint256",
          "name": "totalShares",
          "type": "uint256"
        },
        {
          "internalType": "uint256",
          "name": "accRewardPerShare",
          "type": "uint256"
        },
        {
          "internalType": "uint256",
          "name": "lastRewardTime",
          "type": "uint256"
        },
        {
          "internalType": "uint256",
          "name": "allocPoint",
          "type": "uint256"
        },
        {
          "internalType": "contract IRewarder",
          "name": "rewarder",
          "type": "address"
        }
      ],
      "stateMutability": "view",
      "type": "function"
    },
    {
      "inputs": [],
      "name": "rewardPerSec",
      "outputs": [
        {
          "internalType": "uint256",
          "name": "",
          "type": "uint256"
        }
      ],
      "stateMutability": "view",
      "type": "function"
    },
    {
      "inputs": [],
      "name": "rewardToken",
      "outputs": [
        {
          "internalType": "address",
          "name": "",
          "type": "address"
        }
      ],
      "stateMutability": "view",
      "type": "function"
    },
    {
      "inputs": [],
      "name": "totalAllocPoint",
      "outputs": [
        {
          "internalType": "uint256",
          "name": "",
          "type": "uint256"
        }
      ],
      "stateMutability": "view",
      "type": "function"
    },
    {
      "inputs": [
        {
          "internalType": "address",
          "name": "newOwner",
          "type": "address"
        },
        {
          "internalType": "bool",
          "name": "direct",
          "type": "bool"
        },
        {
          "internalType": "bool",
          "name": "renounce",
          "type": "bool"
        }
      ],
      "name": "transferOwnership",
      "outputs": [],
      "stateMutability": "nonpayable",
      "type": "function"
    },
    {
      "inputs": [
        {
          "internalType": "address",
          "name": "",
          "type": "address"
        },
        {
          "internalType": "address",
          "name": "",
          "type": "address"
        }
      ],
      "name": "userInfo",
      "outputs": [
        {
          "internalType": "uint256",
          "name": "shares",
          "type": "uint256"
        },
        {
          "internalType": "int256",
          "name": "rewardDebt",
          "type": "int256"
        }
      ],
      "stateMutability": "view",
      "type": "function"
    },
    {
      "inputs": [
        {
          "internalType": "uint256",
          "name": "_rewardPerSec",
          "type": "uint256"
        }
      ],
      "name": "setReward",
      "outputs": [],
      "stateMutability": "nonpayable",
      "type": "function"
    },
    {
      "inputs": [
        {
          "internalType": "address",
          "name": "borrowable",
          "type": "address"
        },
        {
          "internalType": "uint256",
          "name": "allocPoint",
          "type": "uint256"
        },
        {
          "internalType": "contract IRewarder",
          "name": "rewarder",
          "type": "address"
        },
        {
          "internalType": "bool",
          "name": "overwrite",
          "type": "bool"
        }
      ],
      "name": "set",
      "outputs": [],
      "stateMutability": "nonpayable",
      "type": "function"
    },
    {
      "inputs": [
        {
          "internalType": "contract IFactory",
          "name": "factory",
          "type": "address"
        },
        {
          "internalType": "address",
          "name": "uniswapV2Pair",
          "type": "address"
        },
        {
          "internalType": "uint256",
          "name": "allocPoint",
          "type": "uint256"
        },
        {
          "internalType": "contract IRewarder",
          "name": "rewarder",
          "type": "address"
        },
        {
          "internalType": "bool",
          "name": "overwrite",
          "type": "bool"
        }
      ],
      "name": "setUniswapV2Pair",
      "outputs": [],
      "stateMutability": "nonpayable",
      "type": "function"
    },
    {
      "inputs": [
        {
          "internalType": "address",
          "name": "borrowable",
          "type": "address"
        },
        {
          "internalType": "address",
          "name": "_user",
          "type": "address"
        }
      ],
      "name": "pendingReward",
      "outputs": [
        {
          "internalType": "uint256",
          "name": "pending",
          "type": "uint256"
        }
      ],
      "stateMutability": "view",
      "type": "function"
    },
    {
      "inputs": [
        {
          "internalType": "address",
          "name": "borrowable",
          "type": "address"
        }
      ],
      "name": "updatePool",
      "outputs": [
        {
          "components": [
            {
              "internalType": "uint256",
              "name": "totalShares",
              "type": "uint256"
            },
            {
              "internalType": "uint256",
              "name": "accRewardPerShare",
              "type": "uint256"
            },
            {
              "internalType": "uint256",
              "name": "lastRewardTime",
              "type": "uint256"
            },
            {
              "internalType": "uint256",
              "name": "allocPoint",
              "type": "uint256"
            },
            {
              "internalType": "contract IRewarder",
              "name": "rewarder",
              "type": "address"
            }
          ],
          "internalType": "struct ImpermaxChef.PoolInfo",
          "name": "pool",
          "type": "tuple"
        }
      ],
      "stateMutability": "nonpayable",
      "type": "function"
    },
    {
      "inputs": [
        {
          "internalType": "address",
          "name": "borrowable",
          "type": "address"
        },
        {
          "internalType": "address",
          "name": "to",
          "type": "address"
        }
      ],
      "name": "harvest",
      "outputs": [],
      "stateMutability": "nonpayable",
      "type": "function"
    },
    {
      "inputs": [
        {
          "internalType": "address",
          "name": "borrower",
          "type": "address"
        },
        {
          "internalType": "uint256",
          "name": "borrowBalance",
          "type": "uint256"
        },
        {
          "internalType": "uint256",
          "name": "borrowIndex",
          "type": "uint256"
        }
      ],
      "name": "trackBorrow",
      "outputs": [],
      "stateMutability": "nonpayable",
      "type": "function"
    },
    {
      "inputs": [
        {
          "internalType": "address[]",
          "name": "borrowables",
          "type": "address[]"
        }
      ],
      "name": "massUpdatePools",
      "outputs": [],
      "stateMutability": "nonpayable",
      "type": "function"
    },
    {
      "inputs": [
        {
          "internalType": "address[]",
          "name": "borrowables",
          "type": "address[]"
        },
        {
          "internalType": "address",
          "name": "to",
          "type": "address"
        }
      ],
      "name": "massHarvest",
      "outputs": [],
      "stateMutability": "nonpayable",
      "type": "function"
    },
    {
      "inputs": [],
      "name": "getBlockTimestamp",
      "outputs": [
        {
          "internalType": "uint256",
          "name": "",
          "type": "uint256"
        }
      ],
      "stateMutability": "view",
      "type": "function"
    }
  ],
  "bytecode": "0x60a06040523480156200001157600080fd5b5060405162002078380380620020788339810160408190526200003491620000ff565b600080546001600160a01b0319163390811782556040519091907f8be0079c531659141344cd1fd0a4f28419497f9722a3daafe3b4186f6b6457e0908290a36715ed49a0f91e00008110620000a65760405162461bcd60e51b81526004016200009d9062000139565b60405180910390fd5b6001600160601b0319606083901b1660805260028190556040517f95689dd8916ac2af3670f360c0db71ab5304c307b1b42def2b02b8cca620d0ee90620000ef90839062000170565b60405180910390a1505062000179565b6000806040838503121562000112578182fd5b82516001600160a01b038116811462000129578283fd5b6020939093015192949293505050565b6020808252601f908201527f496d7065726178436865663a204d41585f5245574152445f5045525f53454300604082015260600190565b90815260200190565b60805160601c611edc6200019c60003980610bd852806111685250611edc6000f3fe608060405234801561001057600080fd5b50600436106101515760003560e01c8063578461aa116100cd5780638da5cb5b116100815780639ced7e76116100665780639ced7e76146102a0578063e30c3978146102b3578063f7c618c1146102bb57610151565b80638da5cb5b146102675780639a7b5f111461027c57610151565b806366cc1857116100b257806366cc18571461022c578063796b89b91461023f5780637b46c54f1461024757610151565b8063578461aa14610206578063629f89891461021957610151565b8063293be4561161012457806339eaed291161010957806339eaed29146101e35780634e71e0c8146101f65780634f41e95d146101fe57610151565b8063293be456146101bd57806331c1abdc146101d057610151565b806305285d7f14610156578063078dfbe71461016b5780630f208beb1461017e57806317caf6f1146101a8575b600080fd5b6101696101643660046117d5565b6102c3565b005b610169610179366004611739565b6104e7565b61019161018c366004611701565b61066f565b60405161019f929190611dea565b60405180910390f35b6101b0610693565b60405161019f9190611dd1565b6101696101cb366004611983565b610699565b6101696101de366004611849565b61076b565b6101696101f1366004611809565b6107b0565b6101696107ef565b6101b06108d5565b610169610214366004611783565b6108db565b61016961022736600461192a565b610a63565b61016961023a366004611701565b610b17565b6101b0610d25565b61025a6102553660046116e5565b610d29565b60405161019f9190611d81565b61026f610f25565b60405161019f91906119b7565b61028f61028a3660046116e5565b610f41565b60405161019f959493929190611e0e565b6101b06102ae366004611701565b610f87565b61026f61114a565b61026f611166565b336102cc61163d565b6102d582610d29565b73ffffffffffffffffffffffffffffffffffffffff8084166000908152600460209081526040808320938a1683529290529081209192506103398561032d886c0100000000000000000000000063ffffffff61118a16565b9063ffffffff6111e716565b825490915060009061035290839063ffffffff61122916565b905060007401000000000000000000000000000000000000000061038386602001518461128990919063ffffffff16565b8161038a57fe5b848655600186015491900591506103a7908263ffffffff61136216565b600185015584516103c7906103c2908463ffffffff61136216565b6113c2565b73ffffffffffffffffffffffffffffffffffffffff8088166000908152600360205260409020919091556080860151161561047557846080015173ffffffffffffffffffffffffffffffffffffffff1663c35f5822878b8c6000886040518663ffffffff1660e01b81526004016104429594939291906119d8565b600060405180830381600087803b15801561045c57600080fd5b505af1158015610470573d6000803e3d6000fd5b505050505b8873ffffffffffffffffffffffffffffffffffffffff168673ffffffffffffffffffffffffffffffffffffffff167f0b3b05c4c219d1c1afdced4fa5f0fb112c1a5541a3988b66e483a3af9629b2388a8a6040516104d4929190611dea565b60405180910390a3505050505050505050565b60005473ffffffffffffffffffffffffffffffffffffffff163314610541576040517f08c379a000000000000000000000000000000000000000000000000000000000815260040161053890611c5d565b60405180910390fd5b81156106295773ffffffffffffffffffffffffffffffffffffffff83161515806105685750805b61059e576040517f08c379a000000000000000000000000000000000000000000000000000000000815260040161053890611b92565b6000805460405173ffffffffffffffffffffffffffffffffffffffff808716939216917f8be0079c531659141344cd1fd0a4f28419497f9722a3daafe3b4186f6b6457e091a3600080547fffffffffffffffffffffffff00000000000000000000000000000000000000001673ffffffffffffffffffffffffffffffffffffffff851617905561066a565b600180547fffffffffffffffffffffffff00000000000000000000000000000000000000001673ffffffffffffffffffffffffffffffffffffffff85161790555b505050565b60046020908152600092835260408084209091529082529020805460019091015482565b60055481565b60005473ffffffffffffffffffffffffffffffffffffffff1633146106ea576040517f08c379a000000000000000000000000000000000000000000000000000000000815260040161053890611c5d565b6715ed49a0f91e0000811061072b576040517f08c379a000000000000000000000000000000000000000000000000000000000815260040161053890611a90565b60028190556040517f95689dd8916ac2af3670f360c0db71ab5304c307b1b42def2b02b8cca620d0ee90610760908390611dd1565b60405180910390a150565b8160005b818110156107a9576107a185858381811061078657fe5b905060200201602081019061079b91906116e5565b84610b17565b60010161076f565b5050505050565b8060005b818110156107e9576107e08484838181106107cb57fe5b905060200201602081019061025591906116e5565b506001016107b4565b50505050565b60015473ffffffffffffffffffffffffffffffffffffffff16338114610841576040517f08c379a000000000000000000000000000000000000000000000000000000000815260040161053890611cef565b6000805460405173ffffffffffffffffffffffffffffffffffffffff808516939216917f8be0079c531659141344cd1fd0a4f28419497f9722a3daafe3b4186f6b6457e091a36000805473ffffffffffffffffffffffffffffffffffffffff9092167fffffffffffffffffffffffff0000000000000000000000000000000000000000928316179055600180549091169055565b60025481565b60005473ffffffffffffffffffffffffffffffffffffffff16331461092c576040517f08c379a000000000000000000000000000000000000000000000000000000000815260040161053890611c5d565b73ffffffffffffffffffffffffffffffffffffffff841660009081526003602081905260409091209081015460055461097c9186916109709163ffffffff61140216565b9063ffffffff61144416565b6005556003810184905581156109cf576004810180547fffffffffffffffffffffffff00000000000000000000000000000000000000001673ffffffffffffffffffffffffffffffffffffffff85161790555b816109f457600481015473ffffffffffffffffffffffffffffffffffffffff166109f6565b825b73ffffffffffffffffffffffffffffffffffffffff168573ffffffffffffffffffffffffffffffffffffffff167f1d3f76656cef3ed455ab0a402cd130d5fd534f3c0a09d0ef79d1f8d5f19d12b28685604051610a54929190611dda565b60405180910390a35050505050565b6000808673ffffffffffffffffffffffffffffffffffffffff16630572bf5f876040518263ffffffff1660e01b8152600401610a9f91906119b7565b60a06040518083038186803b158015610ab757600080fd5b505afa158015610acb573d6000803e3d6000fd5b505050506040513d601f19601f82011682018060405250810190610aef91906118af565b94509450505050610b02828686866108db565b610b0e818686866108db565b50505050505050565b610b1f61163d565b610b2883610d29565b73ffffffffffffffffffffffffffffffffffffffff841660009081526004602090815260408083203384528252822090830151815493945090927401000000000000000000000000000000000000000091610b89919063ffffffff61118a16565b81610b9057fe5b0490506000610baf6103c284600101548461122990919063ffffffff16565b6001840183905590508015610c0557610c0573ffffffffffffffffffffffffffffffffffffffff7f000000000000000000000000000000000000000000000000000000000000000016868363ffffffff61148316565b608084015173ffffffffffffffffffffffffffffffffffffffff1615610cb857608084015183546040517fc35f582200000000000000000000000000000000000000000000000000000000815273ffffffffffffffffffffffffffffffffffffffff9092169163c35f582291610c85918a9133918b9188916004016119d8565b600060405180830381600087803b158015610c9f57600080fd5b505af1158015610cb3573d6000803e3d6000fd5b505050505b3373ffffffffffffffffffffffffffffffffffffffff168673ffffffffffffffffffffffffffffffffffffffff167fa0306f61d3fafe13787b78e276cb6b644382854a66cb46daae14227d3ec2679783604051610d159190611dd1565b60405180910390a3505050505050565b4290565b610d3161163d565b5073ffffffffffffffffffffffffffffffffffffffff808216600090815260036020818152604092839020835160a0810185528154815260018201549281019290925260028101549382018490529182015460608201526004909101549092166080830152610d9e610d25565b1115610f205780518015610e4f576000610dca8360400151610dbe610d25565b9063ffffffff61140216565b90506000600554610dfa8560600151610dee6002548661118a90919063ffffffff16565b9063ffffffff61118a16565b81610e0157fe5b049050610e4783610e2d837401000000000000000000000000000000000000000063ffffffff61118a16565b81610e3457fe5b602087015191900463ffffffff61144416565b602085015250505b610e57610d25565b604083810191825273ffffffffffffffffffffffffffffffffffffffff858116600081815260036020818152918590208851815591880151600183018190559551600283018190556060890151918301919091556080880151600490920180547fffffffffffffffffffffffff0000000000000000000000000000000000000000169290941691909117909255915191927ffa4534c55db3b65cd96eafe03e5ce9fd87638590f49d5907978ff8489ea66ecb92610f1692918691611df8565b60405180910390a2505b919050565b60005473ffffffffffffffffffffffffffffffffffffffff1681565b60036020819052600091825260409091208054600182015460028301549383015460049093015491939092909173ffffffffffffffffffffffffffffffffffffffff1685565b6000610f9161163d565b5073ffffffffffffffffffffffffffffffffffffffff808416600090815260036020818152604092839020835160a081018552815481526001820154928101929092526002810154938201939093529082015460608201526004909101549091166080820152610fff611682565b5073ffffffffffffffffffffffffffffffffffffffff80851660009081526004602090815260408083209387168352928152908290208251808401845281548152600190910154818301529083015183519284015191929091611060610d25565b11801561106c57508015155b156110f55760006110838560400151610dbe610d25565b905060006005546110a78760600151610dee6002548661118a90919063ffffffff16565b816110ae57fe5b0490506110f0836110da837401000000000000000000000000000000000000000063ffffffff61118a16565b816110e157fe5b8691900463ffffffff61144416565b935050505b6020830151835161113f916103c291740100000000000000000000000000000000000000009061112b908763ffffffff61118a16565b8161113257fe5b049063ffffffff61122916565b979650505050505050565b60015473ffffffffffffffffffffffffffffffffffffffff1681565b7f000000000000000000000000000000000000000000000000000000000000000081565b600082611199575060006111e1565b828202828482816111a657fe5b04146111de576040517f08c379a000000000000000000000000000000000000000000000000000000000815260040161053890611bc9565b90505b92915050565b60006111de83836040518060400160405280601a81526020017f536166654d6174683a206469766973696f6e206279207a65726f0000000000008152506115a6565b600081830381831280159061123e5750838113155b80611253575060008312801561125357508381135b6111de576040517f08c379a000000000000000000000000000000000000000000000000000000000815260040161053890611d24565b600082611298575060006111e1565b827fffffffffffffffffffffffffffffffffffffffffffffffffffffffffffffffff1480156112e657507f800000000000000000000000000000000000000000000000000000000000000082145b1561131d576040517f08c379a000000000000000000000000000000000000000000000000000000000815260040161053890611c92565b8282028284828161132a57fe5b05146111de576040517f08c379a000000000000000000000000000000000000000000000000000000000815260040161053890611c92565b60008282018183128015906113775750838112155b8061138c575060008312801561138c57508381125b6111de576040517f08c379a000000000000000000000000000000000000000000000000000000000815260040161053890611b35565b6000808212156113fe576040517f08c379a000000000000000000000000000000000000000000000000000000000815260040161053890611ac7565b5090565b60006111de83836040518060400160405280601f81526020017f536166654d6174683a207375627472616374696f6e20756e646572666c6f77008152506115f7565b6000828201838110156111de576040517f08c379a000000000000000000000000000000000000000000000000000000000815260040161053890611afe565b600060608473ffffffffffffffffffffffffffffffffffffffff1663a9059cbb85856040516024016114b6929190611a19565b6040516020818303038152906040529060e01b6020820180517bffffffffffffffffffffffffffffffffffffffffffffffffffffffff8381831617835250505050604051611504919061199b565b6000604051808303816000865af19150503d8060008114611541576040519150601f19603f3d011682016040523d82523d6000602084013e611546565b606091505b50915091508180156115705750805115806115705750808060200190518101906115709190611893565b6107a9576040517f08c379a000000000000000000000000000000000000000000000000000000000815260040161053890611c26565b600081836115e1576040517f08c379a00000000000000000000000000000000000000000000000000000000081526004016105389190611a3f565b5060008385816115ed57fe5b0495945050505050565b60008184841115611635576040517f08c379a00000000000000000000000000000000000000000000000000000000081526004016105389190611a3f565b505050900390565b6040518060a0016040528060008152602001600081526020016000815260200160008152602001600073ffffffffffffffffffffffffffffffffffffffff1681525090565b604051806040016040528060008152602001600081525090565b60008083601f8401126116ad578182fd5b50813567ffffffffffffffff8111156116c4578182fd5b60208301915083602080830285010111156116de57600080fd5b9250929050565b6000602082840312156116f6578081fd5b81356111de81611e73565b60008060408385031215611713578081fd5b823561171e81611e73565b9150602083013561172e81611e73565b809150509250929050565b60008060006060848603121561174d578081fd5b833561175881611e73565b9250602084013561176881611e98565b9150604084013561177881611e98565b809150509250925092565b60008060008060808587031215611798578081fd5b84356117a381611e73565b93506020850135925060408501356117ba81611e73565b915060608501356117ca81611e98565b939692955090935050565b6000806000606084860312156117e9578283fd5b83356117f481611e73565b95602085013595506040909401359392505050565b6000806020838503121561181b578182fd5b823567ffffffffffffffff811115611831578283fd5b61183d8582860161169c565b90969095509350505050565b60008060006040848603121561185d578283fd5b833567ffffffffffffffff811115611873578384fd5b61187f8682870161169c565b909450925050602084013561177881611e73565b6000602082840312156118a4578081fd5b81516111de81611e98565b600080600080600060a086880312156118c6578081fd5b85516118d181611e98565b602087015190955062ffffff811681146118e9578182fd5b60408701519094506118fa81611e73565b606087015190935061190b81611e73565b608087015190925061191c81611e73565b809150509295509295909350565b600080600080600060a08688031215611941578081fd5b853561194c81611e73565b9450602086013561195c81611e73565b935060408601359250606086013561197381611e73565b9150608086013561191c81611e98565b600060208284031215611994578081fd5b5035919050565b600082516119ad818460208701611e47565b9190910192915050565b73ffffffffffffffffffffffffffffffffffffffff91909116815260200190565b73ffffffffffffffffffffffffffffffffffffffff958616815293851660208501529190931660408301526060820192909252608081019190915260a00190565b73ffffffffffffffffffffffffffffffffffffffff929092168252602082015260400190565b6000602082528251806020840152611a5e816040850160208701611e47565b601f017fffffffffffffffffffffffffffffffffffffffffffffffffffffffffffffffe0169190910160400192915050565b6020808252601f908201527f496d7065726178436865663a204d41585f5245574152445f5045525f53454300604082015260600190565b6020808252600b908201527f496e7465676572203c2030000000000000000000000000000000000000000000604082015260600190565b6020808252601b908201527f536166654d6174683a206164646974696f6e206f766572666c6f770000000000604082015260600190565b60208082526021908201527f5369676e6564536166654d6174683a206164646974696f6e206f766572666c6f60408201527f7700000000000000000000000000000000000000000000000000000000000000606082015260800190565b60208082526015908201527f4f776e61626c653a207a65726f20616464726573730000000000000000000000604082015260600190565b60208082526021908201527f536166654d6174683a206d756c7469706c69636174696f6e206f766572666c6f60408201527f7700000000000000000000000000000000000000000000000000000000000000606082015260800190565b6020808252600d908201527f21736166655472616e7366657200000000000000000000000000000000000000604082015260600190565b6020808252818101527f4f776e61626c653a2063616c6c6572206973206e6f7420746865206f776e6572604082015260600190565b60208082526027908201527f5369676e6564536166654d6174683a206d756c7469706c69636174696f6e206f60408201527f766572666c6f7700000000000000000000000000000000000000000000000000606082015260800190565b6020808252818101527f4f776e61626c653a2063616c6c657220213d2070656e64696e67206f776e6572604082015260600190565b60208082526024908201527f5369676e6564536166654d6174683a207375627472616374696f6e206f76657260408201527f666c6f7700000000000000000000000000000000000000000000000000000000606082015260800190565b600060a0820190508251825260208301516020830152604083015160408301526060830151606083015273ffffffffffffffffffffffffffffffffffffffff608084015116608083015292915050565b90815260200190565b9182521515602082015260400190565b918252602082015260400190565b9283526020830191909152604082015260600190565b94855260208501939093526040840191909152606083015273ffffffffffffffffffffffffffffffffffffffff16608082015260a00190565b60005b83811015611e62578181015183820152602001611e4a565b838111156107e95750506000910152565b73ffffffffffffffffffffffffffffffffffffffff81168114611e9557600080fd5b50565b8015158114611e9557600080fdfea264697066735822122078c5c92bb5f06b42dca51250c33e532e5962c89eebe7f183b02983946066375b64736f6c63430006060033",
  "immutableReferences": {
    "794": [
      {
        "length": 32,
        "start": 3032
      },
      {
        "length": 32,
        "start": 4456
      }
    ]
  },
  "source": "pragma solidity =0.6.6;\r\npragma experimental ABIEncoderV2;\r\n\r\nimport \"./Ownable.sol\";\r\nimport \"./libraries/SafeMath.sol\";\r\nimport \"./libraries/SafeToken.sol\";\r\nimport \"./libraries/SignedSafeMath.sol\";\r\nimport \"./interfaces/IBorrowTracker.sol\";\r\nimport \"./interfaces/IRewarder.sol\";\r\nimport \"./interfaces/IERC20.sol\";\r\nimport \"./interfaces/IFactory.sol\";\r\n\r\ncontract ImpermaxChef is IBorrowTracker, Ownable {\r\n\tusing SafeMath for uint256;\r\n\tusing SignedSafeMath for int256;\r\n\tusing SafeToken for address;\r\n\r\n\tstruct UserInfo {\r\n\t\tuint256 shares;\r\n\t\tint256 rewardDebt;\r\n\t}\r\n\r\n\tstruct PoolInfo {\r\n\t\tuint256 totalShares;\r\n\t\tuint256 accRewardPerShare;\r\n\t\tuint256 lastRewardTime;\r\n\t\tuint256 allocPoint;\r\n\t\tIRewarder rewarder;\r\n\t}\r\n\r\n\taddress public immutable rewardToken;\r\n\tuint256 public rewardPerSec;\r\n\t\r\n\tmapping(address => PoolInfo) public poolInfo;\r\n\tmapping(address => mapping(address => UserInfo)) public userInfo; // [borrowable][user]\r\n\t\r\n\tuint256 public totalAllocPoint;\r\n\r\n\tuint256 private constant ACC_PRECISION = 2**160;\r\n\tuint256 private constant SHARES_PRECISION = 2**96;\r\n\tuint256 private constant MAX_REWARD_PER_SEC = 1.58e18; // limit reward to 50M IMX per year\r\n\r\n\tevent TrackBorrow(address indexed borrowable, address indexed borrower, uint256 borrowBalance, uint256 borrowIndex);\r\n\tevent Harvest(address indexed borrowable, address indexed user, uint256 amount);\r\n\tevent LogSetReward(uint256 rewardPerSec);\r\n\tevent LogSetPool(address indexed borrowable, uint256 allocPoint, IRewarder indexed rewarder, bool overwrite);\r\n\tevent LogUpdatePool(address indexed borrowable, uint256 lastRewardTime, uint256 totalShares, uint256 accRewardPerShare);\r\n\t\r\n\tconstructor(address _rewardToken, uint256 _rewardPerSec) public {\r\n\t\trequire(_rewardPerSec < MAX_REWARD_PER_SEC, \"ImperaxChef: MAX_REWARD_PER_SEC\");\r\n\t\trewardToken = _rewardToken;\r\n\t\trewardPerSec = _rewardPerSec;\r\n\t\temit LogSetReward(_rewardPerSec);\r\n\t}\r\n\t\t\r\n\t/* \r\n\t * Owner\r\n\t */\r\n\t \r\n\tfunction setReward(uint256 _rewardPerSec) public onlyOwner {\r\n\t\trequire(_rewardPerSec < MAX_REWARD_PER_SEC, \"ImperaxChef: MAX_REWARD_PER_SEC\");\r\n\t\trewardPerSec = _rewardPerSec;\r\n\t\temit LogSetReward(_rewardPerSec);\r\n\t}\r\n\t\r\n\tfunction set(address borrowable, uint256 allocPoint, IRewarder rewarder, bool overwrite) public onlyOwner {\r\n\t\tPoolInfo storage pool = poolInfo[borrowable];\r\n\t\ttotalAllocPoint = totalAllocPoint.sub(pool.allocPoint).add(allocPoint);\r\n\t\tpool.allocPoint = allocPoint;\r\n\t\tif (overwrite) pool.rewarder = rewarder;\r\n\t\temit LogSetPool(borrowable, allocPoint, overwrite ? rewarder : pool.rewarder, overwrite);\r\n\t}\r\n\t\r\n\tfunction setUniswapV2Pair(IFactory factory, address uniswapV2Pair, uint256 allocPoint, IRewarder rewarder, bool overwrite) external {\r\n\t\t(,,, address borrowable0, address borrowable1) = factory.getLendingPool(uniswapV2Pair);\r\n\t\tset(borrowable0, allocPoint, rewarder, overwrite);\r\n\t\tset(borrowable1, allocPoint, rewarder, overwrite);\r\n\t}\r\n\t\t\r\n\t/* \r\n\t * Interactions\r\n\t */\r\n\t\r\n\tfunction pendingReward(address borrowable, address _user) external view returns (uint256 pending) {\r\n\t\tPoolInfo memory pool = poolInfo[borrowable];\r\n\t\tUserInfo memory user = userInfo[borrowable][_user];\r\n\t\tuint256 accRewardPerShare = pool.accRewardPerShare;\r\n\t\tuint256 totalShares = pool.totalShares;\r\n\t\tif (getBlockTimestamp() > pool.lastRewardTime && totalShares != 0) {\r\n\t\t\tuint256 timeElapsed = getBlockTimestamp().sub(pool.lastRewardTime);\r\n\t\t\tuint256 reward = timeElapsed.mul(rewardPerSec).mul(pool.allocPoint) / totalAllocPoint;\r\n\t\t\taccRewardPerShare = accRewardPerShare.add(reward.mul(ACC_PRECISION) / totalShares);\r\n\t\t}\r\n\t\tpending = int256(user.shares.mul(accRewardPerShare) / ACC_PRECISION).sub(user.rewardDebt).toUInt256();\r\n\t}\r\n\r\n\tfunction updatePool(address borrowable) public returns (PoolInfo memory pool) {\r\n\t\tpool = poolInfo[borrowable];\r\n\t\tif (getBlockTimestamp() > pool.lastRewardTime) {\r\n\t\t\tuint256 totalShares = pool.totalShares;\r\n\t\t\tif (totalShares > 0) {\r\n\t\t\t\tuint256 timeElapsed = getBlockTimestamp().sub(pool.lastRewardTime);\r\n\t\t\t\tuint256 reward = timeElapsed.mul(rewardPerSec).mul(pool.allocPoint) / totalAllocPoint;\r\n\t\t\t\tpool.accRewardPerShare = pool.accRewardPerShare.add((reward.mul(ACC_PRECISION) / totalShares));\r\n\t\t\t}\r\n\t\t\tpool.lastRewardTime = getBlockTimestamp();\r\n\t\t\tpoolInfo[borrowable] = pool;\r\n\t\t\temit LogUpdatePool(borrowable, pool.lastRewardTime, totalShares, pool.accRewardPerShare);\r\n\t\t}\r\n\t}\r\n\r\n\tfunction harvest(address borrowable, address to) public {\r\n\t\tPoolInfo memory pool = updatePool(borrowable);\r\n\t\tUserInfo storage user = userInfo[borrowable][msg.sender];\r\n\t\tint256 accumulatedReward = int256(user.shares.mul(pool.accRewardPerShare) / ACC_PRECISION);\r\n\t\tuint256 _pendingReward = accumulatedReward.sub(user.rewardDebt).toUInt256();\r\n\r\n\t\t// Effects\r\n\t\tuser.rewardDebt = accumulatedReward;\r\n\r\n\t\t// Interactions\r\n\t\tif (_pendingReward != 0) {\r\n\t\t\trewardToken.safeTransfer(to, _pendingReward);\r\n\t\t}\r\n\t\tif (address(pool.rewarder) != address(0)) {\r\n\t\t\tpool.rewarder.onReward(borrowable, msg.sender, to, _pendingReward, user.shares);\r\n\t\t}\r\n\r\n\t\temit Harvest(borrowable, msg.sender, _pendingReward);\r\n\t}\r\n\t\r\n\tfunction trackBorrow(address borrower, uint borrowBalance, uint borrowIndex) external override {\r\n\t\taddress borrowable = msg.sender;\r\n\t\tPoolInfo memory pool = updatePool(borrowable);\r\n\t\t\r\n\t\t// Effects\r\n\t\tUserInfo storage user = userInfo[borrowable][borrower];\r\n\t\tuint newShares = borrowBalance.mul(SHARES_PRECISION).div(borrowIndex);\r\n\t\tint256 diffShares = int256(newShares).sub(int256(user.shares));\r\n\t\tint256 diffRewardDebt = diffShares.mul(int256(pool.accRewardPerShare)) / int256(ACC_PRECISION);\r\n\t\tuser.shares = newShares;\r\n\t\tuser.rewardDebt = user.rewardDebt.add(diffRewardDebt);\r\n\t\tpoolInfo[borrowable].totalShares = int256(pool.totalShares).add(diffShares).toUInt256();\r\n\r\n        // Interactions\r\n\t\tif (address(pool.rewarder) != address(0)) {\r\n\t\t\tpool.rewarder.onReward(borrowable, borrower, borrower, 0, newShares);\r\n\t\t}\r\n\t\t\r\n\t\temit TrackBorrow(borrowable, borrower, borrowBalance, borrowIndex);\r\n\t}\r\n\t\r\n\t/*\r\n\t * Aggregators\r\n\t */\r\n\t \r\n\tfunction massUpdatePools(address[] calldata borrowables) external {\r\n\t\tuint256 len = borrowables.length;\r\n\t\tfor (uint256 i = 0; i < len; ++i) {\r\n\t\t\tupdatePool(borrowables[i]);\r\n\t\t}\r\n\t}\r\n\t \r\n\tfunction massHarvest(address[] calldata borrowables, address to) external {\r\n\t\tuint256 len = borrowables.length;\r\n\t\tfor (uint256 i = 0; i < len; ++i) {\r\n\t\t\tharvest(borrowables[i], to);\r\n\t\t}\r\n\t}\r\n\t\r\n\tfunction getBlockTimestamp() public virtual view returns (uint256) {\r\n\t\treturn block.timestamp;\r\n\t}\r\n}",
  "sourcePath": "C:\\Users\\simor\\Desktop\\imx\\contracts\\ImpermaxChef.sol",
  "compiler": {
    "name": "solc",
    "version": "0.6.6+commit.6c089d02.Emscripten.clang"
  },
  "schemaVersion": "3.3.2",
  "updatedAt": "2021-09-23T10:41:48.945Z",
  "devdoc": {
    "methods": {}
  },
  "userdoc": {
    "methods": {}
  }
}